{
  "address": "0x538C04cd32B199be1c7A88f8eB51E8DbeFEb0131",
  "abi": [
    {
      "inputs": [
        {
          "internalType": "address",
          "name": "_fhunderNFTAddress",
          "type": "address"
        },
        {
          "internalType": "address",
          "name": "_tokenContractAddress",
          "type": "address"
        }
      ],
      "stateMutability": "nonpayable",
      "type": "constructor"
    },
    {
      "inputs": [],
      "name": "CampaignDoesNotExist",
      "type": "error"
    },
    {
      "inputs": [],
      "name": "FundingGoalNotMet",
      "type": "error"
    },
    {
      "inputs": [],
      "name": "InvalidContribution",
      "type": "error"
    },
    {
      "inputs": [],
      "name": "OnlyCampaignCreator",
      "type": "error"
    },
    {
      "anonymous": false,
      "inputs": [
        {
          "indexed": true,
          "internalType": "uint256",
          "name": "campaignId",
          "type": "uint256"
        },
        {
          "indexed": true,
          "internalType": "address",
          "name": "creator",
          "type": "address"
        },
        {
          "indexed": false,
          "internalType": "string",
          "name": "name",
          "type": "string"
        },
        {
          "indexed": false,
          "internalType": "string",
          "name": "description",
          "type": "string"
        },
        {
          "indexed": false,
          "internalType": "euint128",
          "name": "goal",
          "type": "uint256"
        },
        {
          "indexed": false,
          "internalType": "uint128",
          "name": "minimumContribution",
          "type": "uint128"
        },
        {
          "indexed": false,
          "internalType": "uint256",
          "name": "deadline",
          "type": "uint256"
        }
      ],
      "name": "CampaignCreated",
      "type": "event"
    },
    {
      "anonymous": false,
      "inputs": [
        {
          "indexed": true,
          "internalType": "uint256",
          "name": "campaignId",
          "type": "uint256"
        },
        {
          "indexed": true,
          "internalType": "address",
          "name": "contributor",
          "type": "address"
        },
        {
          "indexed": false,
          "internalType": "euint128",
          "name": "amount",
          "type": "uint256"
        },
        {
          "indexed": false,
          "internalType": "uint256",
          "name": "tokenId",
          "type": "uint256"
        }
      ],
      "name": "ContributionMade",
      "type": "event"
    },
    {
      "anonymous": false,
      "inputs": [
        {
          "indexed": true,
          "internalType": "uint256",
          "name": "campaignId",
          "type": "uint256"
        },
        {
          "indexed": true,
          "internalType": "address",
          "name": "contributor",
          "type": "address"
        },
        {
          "indexed": false,
          "internalType": "euint128",
          "name": "amount",
          "type": "uint256"
        }
      ],
      "name": "Withdrawal",
      "type": "event"
    },
    {
      "inputs": [],
      "name": "campaignCounter",
      "outputs": [
        {
          "internalType": "uint256",
          "name": "",
          "type": "uint256"
        }
      ],
      "stateMutability": "view",
      "type": "function"
    },
    {
      "inputs": [
        {
          "internalType": "uint256",
          "name": "",
          "type": "uint256"
        }
      ],
      "name": "campaigns",
      "outputs": [
        {
          "internalType": "address",
          "name": "creator",
          "type": "address"
        },
        {
          "internalType": "uint256",
          "name": "campaignId",
          "type": "uint256"
        },
        {
          "internalType": "string",
          "name": "name",
          "type": "string"
        },
        {
          "internalType": "string",
          "name": "description",
          "type": "string"
        },
        {
          "internalType": "uint128",
          "name": "minimumContribution",
          "type": "uint128"
        },
        {
          "internalType": "uint256",
          "name": "deadline",
          "type": "uint256"
        },
        {
          "internalType": "euint128",
          "name": "goal",
          "type": "uint256"
        },
        {
          "internalType": "euint128",
          "name": "totalContributions",
          "type": "uint256"
        },
        {
          "internalType": "euint32",
          "name": "numContributors",
          "type": "uint256"
        },
        {
          "internalType": "euint32",
          "name": "contributonsCount",
          "type": "uint256"
        },
        {
          "internalType": "uint256",
          "name": "withdrawnDate",
          "type": "uint256"
        }
      ],
      "stateMutability": "view",
      "type": "function"
    },
    {
      "inputs": [
        {
          "internalType": "uint256",
          "name": "campaignId",
          "type": "uint256"
        },
        {
          "components": [
            {
              "internalType": "bytes",
              "name": "data",
              "type": "bytes"
            }
          ],
          "internalType": "struct inEuint128",
          "name": "amount",
          "type": "tuple"
        }
      ],
      "name": "contribute",
      "outputs": [],
      "stateMutability": "nonpayable",
      "type": "function"
    },
    {
      "inputs": [
        {
          "internalType": "string",
          "name": "name",
          "type": "string"
        },
        {
          "internalType": "string",
          "name": "description",
          "type": "string"
        },
        {
          "components": [
            {
              "internalType": "bytes",
              "name": "data",
              "type": "bytes"
            }
          ],
          "internalType": "struct inEuint128",
          "name": "goal",
          "type": "tuple"
        },
        {
          "internalType": "uint128",
          "name": "minimumContribution",
          "type": "uint128"
        },
        {
          "internalType": "uint256",
          "name": "duration",
          "type": "uint256"
        }
      ],
      "name": "createCampaign",
      "outputs": [],
      "stateMutability": "nonpayable",
      "type": "function"
    },
    {
      "inputs": [
        {
          "internalType": "uint256",
          "name": "campaignId",
          "type": "uint256"
        }
      ],
      "name": "decryptTotalContributions",
      "outputs": [
        {
          "internalType": "uint128",
          "name": "",
          "type": "uint128"
        }
      ],
      "stateMutability": "view",
      "type": "function"
    },
    {
      "inputs": [
        {
          "internalType": "uint256",
          "name": "campaignId",
          "type": "uint256"
        }
      ],
      "name": "getCampaign",
      "outputs": [
        {
          "internalType": "address",
          "name": "creator",
          "type": "address"
        },
        {
          "internalType": "string",
          "name": "name",
          "type": "string"
        },
        {
          "internalType": "string",
          "name": "description",
          "type": "string"
        },
        {
          "internalType": "uint128",
          "name": "goal",
          "type": "uint128"
        },
        {
          "internalType": "uint128",
          "name": "minimumContribution",
          "type": "uint128"
        },
        {
          "internalType": "uint256",
          "name": "deadline",
          "type": "uint256"
        },
        {
          "internalType": "uint128",
          "name": "totalContributions",
          "type": "uint128"
        },
        {
          "internalType": "uint32",
          "name": "numContributors",
          "type": "uint32"
        },
        {
          "internalType": "uint32",
          "name": "contributonsCount",
          "type": "uint32"
        },
        {
          "internalType": "uint256",
          "name": "withdrawnDate",
          "type": "uint256"
        }
      ],
      "stateMutability": "view",
      "type": "function"
    },
    {
      "inputs": [],
      "name": "getTime",
      "outputs": [
        {
          "internalType": "uint256",
          "name": "",
          "type": "uint256"
        }
      ],
      "stateMutability": "view",
      "type": "function"
    },
    {
      "inputs": [
        {
          "internalType": "uint256",
          "name": "campaignId",
          "type": "uint256"
        }
      ],
      "name": "releaseFunds",
      "outputs": [],
      "stateMutability": "nonpayable",
      "type": "function"
    },
    {
      "inputs": [
        {
          "internalType": "uint256",
          "name": "campaignId",
          "type": "uint256"
        },
        {
          "internalType": "string",
          "name": "newDescription",
          "type": "string"
        }
      ],
      "name": "updateCampaignDescription",
      "outputs": [],
      "stateMutability": "nonpayable",
      "type": "function"
    },
    {
      "inputs": [
        {
          "internalType": "uint256",
          "name": "campaignId",
          "type": "uint256"
        }
      ],
      "name": "withdraw",
      "outputs": [],
      "stateMutability": "nonpayable",
      "type": "function"
    }
  ],
  "transactionHash": "0xb2c32b4cd32101ded74f862340248be08253f0f5168a18b2420ef620e5f52b95",
  "args": [
    "0xB170fC5BAC4a87A63fC84653Ee7e0db65CC62f96",
    "0x5c93e3B7824035B375E373FaC1578D4089dcE77A"
  ],
  "numDeployments": 1,
  "solcInputHash": "57edf8d2560ec741cf739ba06f34f995",
  "bytecode": "0x60806040523480156200001157600080fd5b5060405162003c6338038062003c638339818101604052810190620000379190620005ba565b6200007e6040518060400160405280601f81526020017f5b496e69745d2053657474696e67204e465420636f6e747261637420746f2000815250836200010860201b60201c565b81600260006101000a81548173ffffffffffffffffffffffffffffffffffffffff021916908373ffffffffffffffffffffffffffffffffffffffff16021790555080600360006101000a81548173ffffffffffffffffffffffffffffffffffffffff021916908373ffffffffffffffffffffffffffffffffffffffff1602179055505050620008b1565b6200012a826200011e836200012e60201b60201c565b6200043360201b60201c565b5050565b606060006040518060400160405280601081526020017f3031323334353637383961626364656600000000000000000000000000000000815250905060008360601b90506000602a67ffffffffffffffff81111562000192576200019162000601565b5b6040519080825280601f01601f191660200182016040528015620001c55781602001600182028036833780820191505090505b5090507f3000000000000000000000000000000000000000000000000000000000000000816000815181106200020057620001ff62000630565b5b60200101907effffffffffffffffffffffffffffffffffffffffffffffffffffffffffffff1916908160001a9053507f78000000000000000000000000000000000000000000000000000000000000008160018151811062000267576200026662000630565b5b60200101907effffffffffffffffffffffffffffffffffffffffffffffffffffffffffffff1916908160001a90535060005b60148110156200042757836004848360148110620002bc57620002bb62000630565b5b1a60f81b7effffffffffffffffffffffffffffffffffffffffffffffffffffffffffffff1916901c60f81c60ff1681518110620002fe57620002fd62000630565b5b602001015160f81c60f81b8260028362000319919062000698565b6002620003279190620006e3565b815181106200033b576200033a62000630565b5b60200101907effffffffffffffffffffffffffffffffffffffffffffffffffffffffffffff1916908160001a90535083600f60f81b84836014811062000386576200038562000630565b5b1a60f81b1660f81c60ff1681518110620003a557620003a462000630565b5b602001015160f81c60f81b82600283620003c0919062000698565b6003620003ce9190620006e3565b81518110620003e257620003e162000630565b5b60200101907effffffffffffffffffffffffffffffffffffffffffffffffffffffffffffff1916908160001a90535080806200041e906200071e565b91505062000299565b50809350505050919050565b60006040518060400160405280600481526020017f70303a2000000000000000000000000000000000000000000000000000000000815250836040518060400160405280600581526020017f2070313a2000000000000000000000000000000000000000000000000000000081525084604051602001620004b89493929190620007e4565b6040516020818303038152906040529050620004da81620004df60201b60201c565b505050565b608073ffffffffffffffffffffffffffffffffffffffff166341304fac826040518263ffffffff1660e01b81526004016200051b91906200088d565b60006040518083038186803b1580156200053457600080fd5b505afa15801562000549573d6000803e3d6000fd5b5050505050565b600080fd5b600073ffffffffffffffffffffffffffffffffffffffff82169050919050565b6000620005828262000555565b9050919050565b620005948162000575565b8114620005a057600080fd5b50565b600081519050620005b48162000589565b92915050565b60008060408385031215620005d457620005d362000550565b5b6000620005e485828601620005a3565b9250506020620005f785828601620005a3565b9150509250929050565b7f4e487b7100000000000000000000000000000000000000000000000000000000600052604160045260246000fd5b7f4e487b7100000000000000000000000000000000000000000000000000000000600052603260045260246000fd5b6000819050919050565b7f4e487b7100000000000000000000000000000000000000000000000000000000600052601160045260246000fd5b6000620006a5826200065f565b9150620006b2836200065f565b9250828202620006c2816200065f565b91508282048414831517620006dc57620006db62000669565b5b5092915050565b6000620006f0826200065f565b9150620006fd836200065f565b925082820190508082111562000718576200071762000669565b5b92915050565b60006200072b826200065f565b91507fffffffffffffffffffffffffffffffffffffffffffffffffffffffffffffffff820362000760576200075f62000669565b5b600182019050919050565b600081519050919050565b600081905092915050565b60005b83811015620007a157808201518184015260208101905062000784565b60008484015250505050565b6000620007ba826200076b565b620007c6818562000776565b9350620007d881856020860162000781565b80840191505092915050565b6000620007f28287620007ad565b9150620008008286620007ad565b91506200080e8285620007ad565b91506200081c8284620007ad565b915081905095945050505050565b600082825260208201905092915050565b6000601f19601f8301169050919050565b600062000859826200076b565b6200086581856200082a565b93506200087781856020860162000781565b62000882816200083b565b840191505092915050565b60006020820190508181036000830152620008a981846200084c565b905092915050565b6133a280620008c16000396000f3fe608060405234801561001057600080fd5b506004361061009e5760003560e01c80635598f8cc116100665780635598f8cc1461014f5780637f2a75fd14610188578063b028a33b146101a4578063b1de8c78146101d4578063fca604d7146101f05761009e565b8063141961bc146100a35780632a6835a4146100dd5780632e1a7d4d146100f95780634d68282f14610115578063557ed1ba14610131575b600080fd5b6100bd60048036038101906100b8919061230c565b61020e565b6040516100d49b9a9998979695949392919061248e565b60405180910390f35b6100f760048036038101906100f2919061256b565b6103b4565b005b610113600480360381019061010e919061230c565b610a7f565b005b61012f600480360381019061012a919061230c565b610c97565b005b610139610e74565b60405161014691906125c7565b60405180910390f35b6101696004803603810190610164919061230c565b610e7c565b60405161017f9a99989796959493929190612601565b60405180910390f35b6101a2600480360381019061019d919061280c565b611105565b005b6101be60048036038101906101b9919061230c565b6112f0565b6040516101cb91906128db565b60405180910390f35b6101ee60048036038101906101e991906128f6565b611450565b005b6101f86115b6565b60405161020591906125c7565b60405180910390f35b60006020528060005260406000206000915090508060000160009054906101000a900473ffffffffffffffffffffffffffffffffffffffff169080600101549080600201805461025d90612981565b80601f016020809104026020016040519081016040528092919081815260200182805461028990612981565b80156102d65780601f106102ab576101008083540402835291602001916102d6565b820191906000526020600020905b8154815290600101906020018083116102b957829003601f168201915b5050505050908060030180546102eb90612981565b80601f016020809104026020016040519081016040528092919081815260200182805461031790612981565b80156103645780601f1061033957610100808354040283529160200191610364565b820191906000526020600020905b81548152906001019060200180831161034757829003601f168201915b5050505050908060040160009054906101000a90046fffffffffffffffffffffffffffffffff169080600501549080600601549080600701549080600801549080600901549080600b015490508b565b81600073ffffffffffffffffffffffffffffffffffffffff1660008083815260200190815260200160002060000160009054906101000a900473ffffffffffffffffffffffffffffffffffffffff1673ffffffffffffffffffffffffffffffffffffffff1603610450576040517f9b35ed3b00000000000000000000000000000000000000000000000000000000815260040160405180910390fd5b600080600085815260200190815260200160002090506104a56040518060400160405280601881526020017f436f6e747269627574696e6720746f2063616d706169676e0000000000000000815250856115bc565b6104e86040518060400160405280601381526020017f43616d706169676e20646561646c696e653a200000000000000000000000000081525082600501546115bc565b6105276040518060400160405280601981526020017f43757272656e7420626c6f636b2074696d657374616d703a2000000000000000815250426115bc565b6105916040518060400160405280601281526020017f456e6372797074656420616d6f756e743a20000000000000000000000000000081525061057a6105758661057090612ab5565b6115d2565b6115e8565b6fffffffffffffffffffffffffffffffff166115bc565b6106026040518060400160405280601681526020017f4d696e696d756d20636f6e747269627574696f6e3a20000000000000000000008152508260040160009054906101000a90046fffffffffffffffffffffffffffffffff166fffffffffffffffffffffffffffffffff166115bc565b60006106168461061190612ab5565b6115d2565b90506000610680610640610629846115e8565b6fffffffffffffffffffffffffffffffff166116ab565b61067b8560040160009054906101000a90046fffffffffffffffffffffffffffffffff166fffffffffffffffffffffffffffffffff166116ab565b6116bf565b90506106c96040518060400160405280600a81526020017f49732076616c69643a20000000000000000000000000000000000000000000008152506106c483611738565b6117fb565b6107076040518060400160405280600f81526020017f5472616e7366657272696e672e2e2e0000000000000000000000000000000000815250611811565b6000600360009054906101000a900473ffffffffffffffffffffffffffffffffffffffff1673ffffffffffffffffffffffffffffffffffffffff16638468bfc0333061075b8a61075690612ab5565b6115d2565b6040518463ffffffff1660e01b815260040161077993929190612ac8565b6020604051808303816000875af1158015610798573d6000803e3d6000fd5b505050506040513d601f19601f820116820180604052508101906107bc9190612b2b565b90506108176040518060400160405280600d81526020017f5472616e736665727265643a2000000000000000000000000000000000000000815250610800836115e8565b6fffffffffffffffffffffffffffffffff166115bc565b6000610822826115e8565b6fffffffffffffffffffffffffffffffff1611610874576040517f08c379a000000000000000000000000000000000000000000000000000000000815260040161086b90612ba4565b60405180910390fd5b6108b26040518060400160405280601881526020017f5472616e73666572726564207375636365737366756c6c790000000000000000815250611811565b600061090885600a0160003373ffffffffffffffffffffffffffffffffffffffff1673ffffffffffffffffffffffffffffffffffffffff1681526020019081526020016000205461090360006116ab565b61181d565b9050610918856007015485611896565b85600701819055506109378560090154610932600161190e565b611922565b8560090181905550610969856008015461096483610955600161190e565b61095f600061190e565b61199a565b611922565b85600801819055506109cd85600a0160003373ffffffffffffffffffffffffffffffffffffffff1673ffffffffffffffffffffffffffffffffffffffff168152602001908152602001600020546109c8896109c390612ab5565b6115d2565b611896565b85600a0160003373ffffffffffffffffffffffffffffffffffffffff1673ffffffffffffffffffffffffffffffffffffffff168152602001908152602001600020819055503373ffffffffffffffffffffffffffffffffffffffff16887ff9b7589b7a8d939b9da5dae90770378fe5fd7802be5d66432e85bedbdbfbcb7a610a5d8a610a5890612ab5565b6115d2565b6000604051610a6d929190612bff565b60405180910390a35050505050505050565b803373ffffffffffffffffffffffffffffffffffffffff1660008083815260200190815260200160002060000160009054906101000a900473ffffffffffffffffffffffffffffffffffffffff1673ffffffffffffffffffffffffffffffffffffffff1614610b1a576040517f4e77b26a00000000000000000000000000000000000000000000000000000000815260040160405180910390fd5b60008060008481526020019081526020016000209050610b4a610b45826007015483600601546116bf565b611a18565b8060050154421015610b91576040517f08c379a0000000000000000000000000000000000000000000000000000000008152600401610b8890612c74565b60405180910390fd5b600360009054906101000a900473ffffffffffffffffffffffffffffffffffffffff1673ffffffffffffffffffffffffffffffffffffffff1663bf34a8ab3383600701546040518363ffffffff1660e01b8152600401610bf2929190612c94565b6020604051808303816000875af1158015610c11573d6000803e3d6000fd5b505050506040513d601f19601f82011682018060405250810190610c359190612b2b565b504281600b01819055503373ffffffffffffffffffffffffffffffffffffffff16837f37e8063b72a944a76de602f32b82fd8c2a1c6f99564c727ffaf913c7762cd4208360070154604051610c8a9190612cbd565b60405180910390a3505050565b80600073ffffffffffffffffffffffffffffffffffffffff1660008083815260200190815260200160002060000160009054906101000a900473ffffffffffffffffffffffffffffffffffffffff1673ffffffffffffffffffffffffffffffffffffffff1603610d33576040517f9b35ed3b00000000000000000000000000000000000000000000000000000000815260040160405180910390fd5b60008060008481526020019081526020016000209050600081600a0160003373ffffffffffffffffffffffffffffffffffffffff1673ffffffffffffffffffffffffffffffffffffffff168152602001908152602001600020549050610d9960006116ab565b82600a0160003373ffffffffffffffffffffffffffffffffffffffff1673ffffffffffffffffffffffffffffffffffffffff168152602001908152602001600020819055503373ffffffffffffffffffffffffffffffffffffffff16847f37e8063b72a944a76de602f32b82fd8c2a1c6f99564c727ffaf913c7762cd42084600a0160003373ffffffffffffffffffffffffffffffffffffffff1673ffffffffffffffffffffffffffffffffffffffff16815260200190815260200160002054604051610e669190612cbd565b60405180910390a350505050565b600042905090565b600060608060008060008060008060008a600073ffffffffffffffffffffffffffffffffffffffff1660008083815260200190815260200160002060000160009054906101000a900473ffffffffffffffffffffffffffffffffffffffff1673ffffffffffffffffffffffffffffffffffffffff1603610f28576040517f9b35ed3b00000000000000000000000000000000000000000000000000000000815260040160405180910390fd5b60008060008e815260200190815260200160002090508060000160009054906101000a900473ffffffffffffffffffffffffffffffffffffffff168160020182600301610f7884600601546115e8565b8460040160009054906101000a90046fffffffffffffffffffffffffffffffff168560050154610fab87600701546115e8565b610fb88860080154611acd565b610fc58960090154611acd565b89600b0154888054610fd690612981565b80601f016020809104026020016040519081016040528092919081815260200182805461100290612981565b801561104f5780601f106110245761010080835404028352916020019161104f565b820191906000526020600020905b81548152906001019060200180831161103257829003601f168201915b5050505050985087805461106290612981565b80601f016020809104026020016040519081016040528092919081815260200182805461108e90612981565b80156110db5780601f106110b0576101008083540402835291602001916110db565b820191906000526020600020905b8154815290600101906020018083116110be57829003601f168201915b505050505097509b509b509b509b509b509b509b509b509b509b5050509193959799509193959799565b6001600081548092919061111890612d07565b91905055506000600154905060008060008381526020019081526020016000209050338160000160006101000a81548173ffffffffffffffffffffffffffffffffffffffff021916908373ffffffffffffffffffffffffffffffffffffffff160217905550818160010181905550868160020190816111979190612ecf565b50858160030190816111a99190612ecf565b506111bc856111b790612ab5565b6115d2565b8160060181905550838160040160006101000a8154816fffffffffffffffffffffffffffffffff02191690836fffffffffffffffffffffffffffffffff160217905550824261120b9190612fa1565b816005018190555061121d60006116ab565b816007018190555061122f600061190e565b8160080181905550611241600061190e565b81600901819055506112886040518060400160405280601981526020017f43616d706169676e206372656174656420776974682049443a00000000000000815250836115bc565b3373ffffffffffffffffffffffffffffffffffffffff16827f473af60de1f3fb08b94ae663da6d3a17c7c4d2182f1de7c5d0dc65bbe231e0bc898985600601548987600501546040516112df959493929190612fd5565b60405180910390a350505050505050565b600081600073ffffffffffffffffffffffffffffffffffffffff1660008083815260200190815260200160002060000160009054906101000a900473ffffffffffffffffffffffffffffffffffffffff1673ffffffffffffffffffffffffffffffffffffffff160361138e576040517f9b35ed3b00000000000000000000000000000000000000000000000000000000815260040160405180910390fd5b823373ffffffffffffffffffffffffffffffffffffffff1660008083815260200190815260200160002060000160009054906101000a900473ffffffffffffffffffffffffffffffffffffffff1673ffffffffffffffffffffffffffffffffffffffff1614611429576040517f4e77b26a00000000000000000000000000000000000000000000000000000000815260040160405180910390fd5b611447600080868152602001908152602001600020600701546115e8565b92505050919050565b81600073ffffffffffffffffffffffffffffffffffffffff1660008083815260200190815260200160002060000160009054906101000a900473ffffffffffffffffffffffffffffffffffffffff1673ffffffffffffffffffffffffffffffffffffffff16036114ec576040517f9b35ed3b00000000000000000000000000000000000000000000000000000000815260040160405180910390fd5b823373ffffffffffffffffffffffffffffffffffffffff1660008083815260200190815260200160002060000160009054906101000a900473ffffffffffffffffffffffffffffffffffffffff1673ffffffffffffffffffffffffffffffffffffffff1614611587576040517f4e77b26a00000000000000000000000000000000000000000000000000000000815260040160405180910390fd5b60008060008681526020019081526020016000209050838160030190816115ae9190612ecf565b505050505050565b60015481565b6115ce826115c983611b90565b611ba2565b5050565b60006115e18260000151611c44565b9050919050565b60006115f382611c58565b6116045761160160006116ab565b91505b6000829050600061161482611c65565b90506000608073ffffffffffffffffffffffffffffffffffffffff166373cc01546004846040518363ffffffff1660e01b81526004016116559291906130a7565b602060405180830381865afa158015611672573d6000803e3d6000fd5b505050506040513d601f19601f8201168201806040525081019061169691906130ec565b90506116a181611cc2565b9350505050919050565b60006116b8826004611ccc565b9050919050565b60006116ca83611c58565b6116db576116d860006116ab565b92505b6116e482611c58565b6116f5576116f260006116ab565b91505b60008390506000839050600061172a60048484608073ffffffffffffffffffffffffffffffffffffffff1663650de1cf611d6e565b905080935050505092915050565b600061174382611e02565b611754576117516000611e0f565b91505b6000829050600061176482611c65565b90506000608073ffffffffffffffffffffffffffffffffffffffff166373cc0154600d846040518363ffffffff1660e01b81526004016117a59291906130a7565b602060405180830381865afa1580156117c2573d6000803e3d6000fd5b505050506040513d601f19601f820116820180604052508101906117e691906130ec565b90506117f181611e23565b9350505050919050565b61180d8261180883611e2f565b611ba2565b5050565b61181a81611eaf565b50565b600061182883611c58565b6118395761183660006116ab565b92505b61184282611c58565b6118535761185060006116ab565b91505b60008390506000839050600061188860048484608073ffffffffffffffffffffffffffffffffffffffff166392348b34611d6e565b905080935050505092915050565b60006118a183611c58565b6118b2576118af60006116ab565b92505b6118bb82611c58565b6118cc576118c960006116ab565b91505b60008390506000839050600061190060048484608073ffffffffffffffffffffffffffffffffffffffff16622df619611d6e565b905080935050505092915050565b600061191b826002611ccc565b9050919050565b600061192d83611f1c565b61193e5761193b600061190e565b92505b61194782611f1c565b61195857611955600061190e565b91505b60008390506000839050600061198c60028484608073ffffffffffffffffffffffffffffffffffffffff16622df619611d6e565b905080935050505092915050565b60006119a584611e02565b6119b6576119b36000611e0f565b93505b6119bf83611f1c565b6119d0576119cd600061190e565b92505b6119d982611f1c565b6119ea576119e7600061190e565b91505b6000849050600084905060008490506000611a086002858585611f29565b9050809450505050509392505050565b611a2181611e02565b611a3257611a2f6000611e0f565b90505b60008190506000611a4282611c65565b9050608073ffffffffffffffffffffffffffffffffffffffff16637d23f1db600d836040518363ffffffff1660e01b8152600401611a819291906130a7565b600060405180830381865afa158015611a9e573d6000803e3d6000fd5b505050506040513d6000823e3d601f19601f82011682018060405250810190611ac79190613189565b50505050565b6000611ad882611f1c565b611ae957611ae6600061190e565b91505b60008290506000611af982611c65565b90506000608073ffffffffffffffffffffffffffffffffffffffff166373cc01546002846040518363ffffffff1660e01b8152600401611b3a9291906130a7565b602060405180830381865afa158015611b57573d6000803e3d6000fd5b505050506040513d601f19601f82011682018060405250810190611b7b91906130ec565b9050611b8681611fe1565b9350505050919050565b6060611b9b82611feb565b9050919050565b60006040518060400160405280600481526020017f70303a2000000000000000000000000000000000000000000000000000000000815250836040518060400160405280600581526020017f2070313a2000000000000000000000000000000000000000000000000000000081525084604051602001611c25949392919061320e565b6040516020818303038152906040529050611c3f81611eaf565b505050565b6000611c518260046120b9565b9050919050565b6000808214159050919050565b6060602067ffffffffffffffff811115611c8257611c816126b5565b5b6040519080825280601f01601f191660200182016040528015611cb45781602001600182028036833780820191505090505b509050816020820152919050565b6000819050919050565b60006060608073ffffffffffffffffffffffffffffffffffffffff166319e1c5c4611cf686611c65565b856040518363ffffffff1660e01b8152600401611d1492919061324c565b600060405180830381865afa158015611d31573d6000803e3d6000fd5b505050506040513d6000823e3d601f19601f82011682018060405250810190611d5a9190613189565b9050611d6581612153565b91505092915050565b60006060838388611d7e89611c65565b611d8789611c65565b6040518463ffffffff1660e01b8152600401611da59392919061327c565b600060405180830381865afa158015611dc2573d6000803e3d6000fd5b505050506040513d6000823e3d601f19601f82011682018060405250810190611deb9190613189565b9050611df681612161565b91505095945050505050565b6000808214159050919050565b6000611e1c82600d611ccc565b9050919050565b60008082119050919050565b606081611e71576040518060400160405280600581526020017f66616c7365000000000000000000000000000000000000000000000000000000815250611ea8565b6040518060400160405280600481526020017f74727565000000000000000000000000000000000000000000000000000000008152505b9050919050565b608073ffffffffffffffffffffffffffffffffffffffff166341304fac826040518263ffffffff1660e01b8152600401611ee991906132c1565b60006040518083038186803b158015611f0157600080fd5b505afa158015611f15573d6000803e3d6000fd5b5050505050565b6000808214159050919050565b60006060608073ffffffffffffffffffffffffffffffffffffffff1663c2d9695287611f5488611c65565b611f5d88611c65565b611f6688611c65565b6040518563ffffffff1660e01b8152600401611f8594939291906132e3565b600060405180830381865afa158015611fa2573d6000803e3d6000fd5b505050506040513d6000823e3d601f19601f82011682018060405250810190611fcb9190613189565b9050611fd681612153565b915050949350505050565b6000819050919050565b606060006001611ffa8461216f565b01905060008167ffffffffffffffff811115612019576120186126b5565b5b6040519080825280601f01601f19166020018201604052801561204b5781602001600182028036833780820191505090505b509050600082602001820190505b6001156120ae578080600190039150507f3031323334353637383961626364656600000000000000000000000000000000600a86061a8153600a85816120a2576120a161333d565b5b04945060008503612059575b819350505050919050565b60006060608073ffffffffffffffffffffffffffffffffffffffff16635fa55ca784866040518363ffffffff1660e01b81526004016120f99291906130a7565b600060405180830381865afa158015612116573d6000803e3d6000fd5b505050506040513d6000823e3d601f19601f8201168201806040525081019061213f9190613189565b905061214a81612153565b91505092915050565b600060208201519050919050565b600060208201519050919050565b600080600090507a184f03e93ff9f4daa797ed6e38ed64bf6a1f01000000000000000083106121cd577a184f03e93ff9f4daa797ed6e38ed64bf6a1f01000000000000000083816121c3576121c261333d565b5b0492506040810190505b6d04ee2d6d415b85acef8100000000831061220a576d04ee2d6d415b85acef81000000008381612200576121ff61333d565b5b0492506020810190505b662386f26fc10000831061223957662386f26fc10000838161222f5761222e61333d565b5b0492506010810190505b6305f5e1008310612262576305f5e10083816122585761225761333d565b5b0492506008810190505b612710831061228757612710838161227d5761227c61333d565b5b0492506004810190505b606483106122aa57606483816122a05761229f61333d565b5b0492506002810190505b600a83106122b9576001810190505b80915050919050565b6000604051905090565b600080fd5b600080fd5b6000819050919050565b6122e9816122d6565b81146122f457600080fd5b50565b600081359050612306816122e0565b92915050565b600060208284031215612322576123216122cc565b5b6000612330848285016122f7565b91505092915050565b600073ffffffffffffffffffffffffffffffffffffffff82169050919050565b600061236482612339565b9050919050565b61237481612359565b82525050565b612383816122d6565b82525050565b600081519050919050565b600082825260208201905092915050565b60005b838110156123c35780820151818401526020810190506123a8565b60008484015250505050565b6000601f19601f8301169050919050565b60006123eb82612389565b6123f58185612394565b93506124058185602086016123a5565b61240e816123cf565b840191505092915050565b60006fffffffffffffffffffffffffffffffff82169050919050565b61243e81612419565b82525050565b6000819050919050565b600061246961246461245f846122d6565b612444565b6122d6565b9050919050565b6124798161244e565b82525050565b6124888161244e565b82525050565b6000610160820190506124a4600083018e61236b565b6124b1602083018d61237a565b81810360408301526124c3818c6123e0565b905081810360608301526124d7818b6123e0565b90506124e6608083018a612435565b6124f360a083018961237a565b61250060c0830188612470565b61250d60e0830187612470565b61251b61010083018661247f565b61252961012083018561247f565b61253761014083018461237a565b9c9b505050505050505050505050565b600080fd5b60006020828403121561256257612561612547565b5b81905092915050565b60008060408385031215612582576125816122cc565b5b6000612590858286016122f7565b925050602083013567ffffffffffffffff8111156125b1576125b06122d1565b5b6125bd8582860161254c565b9150509250929050565b60006020820190506125dc600083018461237a565b92915050565b600063ffffffff82169050919050565b6125fb816125e2565b82525050565b600061014082019050612617600083018d61236b565b8181036020830152612629818c6123e0565b9050818103604083015261263d818b6123e0565b905061264c606083018a612435565b6126596080830189612435565b61266660a083018861237a565b61267360c0830187612435565b61268060e08301866125f2565b61268e6101008301856125f2565b61269c61012083018461237a565b9b9a5050505050505050505050565b600080fd5b600080fd5b7f4e487b7100000000000000000000000000000000000000000000000000000000600052604160045260246000fd5b6126ed826123cf565b810181811067ffffffffffffffff8211171561270c5761270b6126b5565b5b80604052505050565b600061271f6122c2565b905061272b82826126e4565b919050565b600067ffffffffffffffff82111561274b5761274a6126b5565b5b612754826123cf565b9050602081019050919050565b82818337600083830152505050565b600061278361277e84612730565b612715565b90508281526020810184848401111561279f5761279e6126b0565b5b6127aa848285612761565b509392505050565b600082601f8301126127c7576127c66126ab565b5b81356127d7848260208601612770565b91505092915050565b6127e981612419565b81146127f457600080fd5b50565b600081359050612806816127e0565b92915050565b600080600080600060a08688031215612828576128276122cc565b5b600086013567ffffffffffffffff811115612846576128456122d1565b5b612852888289016127b2565b955050602086013567ffffffffffffffff811115612873576128726122d1565b5b61287f888289016127b2565b945050604086013567ffffffffffffffff8111156128a05761289f6122d1565b5b6128ac8882890161254c565b93505060606128bd888289016127f7565b92505060806128ce888289016122f7565b9150509295509295909350565b60006020820190506128f06000830184612435565b92915050565b6000806040838503121561290d5761290c6122cc565b5b600061291b858286016122f7565b925050602083013567ffffffffffffffff81111561293c5761293b6122d1565b5b612948858286016127b2565b9150509250929050565b7f4e487b7100000000000000000000000000000000000000000000000000000000600052602260045260246000fd5b6000600282049050600182168061299957607f821691505b6020821081036129ac576129ab612952565b5b50919050565b600080fd5b600080fd5b600067ffffffffffffffff8211156129d7576129d66126b5565b5b6129e0826123cf565b9050602081019050919050565b6000612a006129fb846129bc565b612715565b905082815260208101848484011115612a1c57612a1b6126b0565b5b612a27848285612761565b509392505050565b600082601f830112612a4457612a436126ab565b5b8135612a548482602086016129ed565b91505092915050565b600060208284031215612a7357612a726129b2565b5b612a7d6020612715565b9050600082013567ffffffffffffffff811115612a9d57612a9c6129b7565b5b612aa984828501612a2f565b60008301525092915050565b6000612ac13683612a5d565b9050919050565b6000606082019050612add600083018661236b565b612aea602083018561236b565b612af76040830184612470565b949350505050565b612b08816122d6565b8114612b1357600080fd5b50565b600081519050612b2581612aff565b92915050565b600060208284031215612b4157612b406122cc565b5b6000612b4f84828501612b16565b91505092915050565b7f5472616e73666572206661696c65640000000000000000000000000000000000600082015250565b6000612b8e600f83612394565b9150612b9982612b58565b602082019050919050565b60006020820190508181036000830152612bbd81612b81565b9050919050565b6000819050919050565b6000612be9612be4612bdf84612bc4565b612444565b6122d6565b9050919050565b612bf981612bce565b82525050565b6000604082019050612c146000830185612470565b612c216020830184612bf0565b9392505050565b7f43616d706169676e206973206e6f742079657420656e64656400000000000000600082015250565b6000612c5e601983612394565b9150612c6982612c28565b602082019050919050565b60006020820190508181036000830152612c8d81612c51565b9050919050565b6000604082019050612ca9600083018561236b565b612cb66020830184612470565b9392505050565b6000602082019050612cd26000830184612470565b92915050565b7f4e487b7100000000000000000000000000000000000000000000000000000000600052601160045260246000fd5b6000612d12826122d6565b91507fffffffffffffffffffffffffffffffffffffffffffffffffffffffffffffffff8203612d4457612d43612cd8565b5b600182019050919050565b60008190508160005260206000209050919050565b60006020601f8301049050919050565b600082821b905092915050565b600060088302612db17fffffffffffffffffffffffffffffffffffffffffffffffffffffffffffffffff82612d74565b612dbb8683612d74565b95508019841693508086168417925050509392505050565b6000819050919050565b612de68361244e565b612dfa612df282612dd3565b848454612d81565b825550505050565b600090565b612e0f612e02565b612e1a818484612ddd565b505050565b5b81811015612e3e57612e33600082612e07565b600181019050612e20565b5050565b601f821115612e8357612e5481612d4f565b612e5d84612d64565b81016020851015612e6c578190505b612e80612e7885612d64565b830182612e1f565b50505b505050565b600082821c905092915050565b6000612ea660001984600802612e88565b1980831691505092915050565b6000612ebf8383612e95565b9150826002028217905092915050565b612ed882612389565b67ffffffffffffffff811115612ef157612ef06126b5565b5b612efb8254612981565b612f06828285612e42565b600060209050601f831160018114612f395760008415612f27578287015190505b612f318582612eb3565b865550612f99565b601f198416612f4786612d4f565b60005b82811015612f6f57848901518255600182019150602085019450602081019050612f4a565b86831015612f8c5784890151612f88601f891682612e95565b8355505b6001600288020188555050505b505050505050565b6000612fac826122d6565b9150612fb7836122d6565b9250828201905080821115612fcf57612fce612cd8565b5b92915050565b600060a0820190508181036000830152612fef81886123e0565b9050818103602083015261300381876123e0565b90506130126040830186612470565b61301f6060830185612435565b61302c608083018461237a565b9695505050505050565b600060ff82169050919050565b61304c81613036565b82525050565b600081519050919050565b600082825260208201905092915050565b600061307982613052565b613083818561305d565b93506130938185602086016123a5565b61309c816123cf565b840191505092915050565b60006040820190506130bc6000830185613043565b81810360208301526130ce818461306e565b90509392505050565b6000815190506130e6816122e0565b92915050565b600060208284031215613102576131016122cc565b5b6000613110848285016130d7565b91505092915050565b600061312c613127846129bc565b612715565b905082815260208101848484011115613148576131476126b0565b5b6131538482856123a5565b509392505050565b600082601f8301126131705761316f6126ab565b5b8151613180848260208601613119565b91505092915050565b60006020828403121561319f5761319e6122cc565b5b600082015167ffffffffffffffff8111156131bd576131bc6122d1565b5b6131c98482850161315b565b91505092915050565b600081905092915050565b60006131e882612389565b6131f281856131d2565b93506132028185602086016123a5565b80840191505092915050565b600061321a82876131dd565b915061322682866131dd565b915061323282856131dd565b915061323e82846131dd565b915081905095945050505050565b60006040820190508181036000830152613266818561306e565b90506132756020830184613043565b9392505050565b60006060820190506132916000830186613043565b81810360208301526132a3818561306e565b905081810360408301526132b7818461306e565b9050949350505050565b600060208201905081810360008301526132db81846123e0565b905092915050565b60006080820190506132f86000830187613043565b818103602083015261330a818661306e565b9050818103604083015261331e818561306e565b90508181036060830152613332818461306e565b905095945050505050565b7f4e487b7100000000000000000000000000000000000000000000000000000000600052601260045260246000fdfea2646970667358221220c625b11f1132c72853c4363d2244d14b1dbfe38288f7b1f01b553aad5c515ff764736f6c63430008140033",
  "devdoc": {
    "kind": "dev",
    "methods": {},
    "version": 1
  },
  "userdoc": {
    "kind": "user",
    "methods": {},
    "version": 1
  },
  "storageLayout": {
    "storage": [
      {
        "astId": 24075,
        "contract": "contracts/CampaignManager.sol:CampaignManager",
        "label": "campaigns",
        "offset": 0,
        "slot": "0",
        "type": "t_mapping(t_uint256,t_struct(Campaign)24070_storage)"
      },
      {
        "astId": 24077,
        "contract": "contracts/CampaignManager.sol:CampaignManager",
        "label": "campaignCounter",
        "offset": 0,
        "slot": "1",
        "type": "t_uint256"
      },
      {
        "astId": 24079,
        "contract": "contracts/CampaignManager.sol:CampaignManager",
        "label": "nftAddress",
        "offset": 0,
        "slot": "2",
        "type": "t_address"
      },
      {
        "astId": 24081,
        "contract": "contracts/CampaignManager.sol:CampaignManager",
        "label": "tokenContractAddress",
        "offset": 0,
        "slot": "3",
        "type": "t_address"
      }
    ],
    "types": {
      "t_address": {
        "encoding": "inplace",
        "label": "address",
        "numberOfBytes": "20"
      },
      "t_mapping(t_address,t_userDefinedValueType(euint128)16)": {
        "encoding": "mapping",
        "key": "t_address",
        "label": "mapping(address => euint128)",
        "numberOfBytes": "32",
        "value": "t_userDefinedValueType(euint128)16"
      },
      "t_mapping(t_uint256,t_struct(Campaign)24070_storage)": {
        "encoding": "mapping",
        "key": "t_uint256",
        "label": "mapping(uint256 => struct CampaignManager.Campaign)",
        "numberOfBytes": "32",
        "value": "t_struct(Campaign)24070_storage"
      },
      "t_string_storage": {
        "encoding": "bytes",
        "label": "string",
        "numberOfBytes": "32"
      },
      "t_struct(Campaign)24070_storage": {
        "encoding": "inplace",
        "label": "struct CampaignManager.Campaign",
        "members": [
          {
            "astId": 24040,
            "contract": "contracts/CampaignManager.sol:CampaignManager",
            "label": "creator",
            "offset": 0,
            "slot": "0",
            "type": "t_address"
          },
          {
            "astId": 24042,
            "contract": "contracts/CampaignManager.sol:CampaignManager",
            "label": "campaignId",
            "offset": 0,
            "slot": "1",
            "type": "t_uint256"
          },
          {
            "astId": 24044,
            "contract": "contracts/CampaignManager.sol:CampaignManager",
            "label": "name",
            "offset": 0,
            "slot": "2",
            "type": "t_string_storage"
          },
          {
            "astId": 24046,
            "contract": "contracts/CampaignManager.sol:CampaignManager",
            "label": "description",
            "offset": 0,
            "slot": "3",
            "type": "t_string_storage"
          },
          {
            "astId": 24048,
            "contract": "contracts/CampaignManager.sol:CampaignManager",
            "label": "minimumContribution",
            "offset": 0,
            "slot": "4",
            "type": "t_uint128"
          },
          {
            "astId": 24050,
            "contract": "contracts/CampaignManager.sol:CampaignManager",
            "label": "deadline",
            "offset": 0,
            "slot": "5",
            "type": "t_uint256"
          },
          {
            "astId": 24053,
            "contract": "contracts/CampaignManager.sol:CampaignManager",
            "label": "goal",
            "offset": 0,
            "slot": "6",
            "type": "t_userDefinedValueType(euint128)16"
          },
          {
            "astId": 24056,
            "contract": "contracts/CampaignManager.sol:CampaignManager",
            "label": "totalContributions",
            "offset": 0,
            "slot": "7",
            "type": "t_userDefinedValueType(euint128)16"
          },
          {
            "astId": 24059,
            "contract": "contracts/CampaignManager.sol:CampaignManager",
            "label": "numContributors",
            "offset": 0,
            "slot": "8",
            "type": "t_userDefinedValueType(euint32)12"
          },
          {
            "astId": 24062,
            "contract": "contracts/CampaignManager.sol:CampaignManager",
            "label": "contributonsCount",
            "offset": 0,
            "slot": "9",
            "type": "t_userDefinedValueType(euint32)12"
          },
          {
            "astId": 24067,
            "contract": "contracts/CampaignManager.sol:CampaignManager",
            "label": "contributions",
            "offset": 0,
            "slot": "10",
            "type": "t_mapping(t_address,t_userDefinedValueType(euint128)16)"
          },
          {
            "astId": 24069,
            "contract": "contracts/CampaignManager.sol:CampaignManager",
            "label": "withdrawnDate",
            "offset": 0,
            "slot": "11",
            "type": "t_uint256"
          }
        ],
        "numberOfBytes": "384"
      },
      "t_uint128": {
        "encoding": "inplace",
        "label": "uint128",
        "numberOfBytes": "16"
      },
      "t_uint256": {
        "encoding": "inplace",
        "label": "uint256",
        "numberOfBytes": "32"
      },
      "t_userDefinedValueType(euint128)16": {
        "encoding": "inplace",
        "label": "euint128",
        "numberOfBytes": "32"
      },
      "t_userDefinedValueType(euint32)12": {
        "encoding": "inplace",
        "label": "euint32",
        "numberOfBytes": "32"
      }
    }
  }
}