{
  "address": "0x5c93e3B7824035B375E373FaC1578D4089dcE77A",
  "abi": [
    {
      "inputs": [
        {
          "internalType": "string",
          "name": "name",
          "type": "string"
        },
        {
          "internalType": "string",
          "name": "symbol",
          "type": "string"
        },
        {
          "internalType": "uint8",
          "name": "decimals_",
          "type": "uint8"
        },
        {
          "internalType": "address",
          "name": "owner_",
          "type": "address"
        }
      ],
      "stateMutability": "nonpayable",
      "type": "constructor"
    },
    {
      "inputs": [],
      "name": "AccessControlBadConfirmation",
      "type": "error"
    },
    {
      "inputs": [
        {
          "internalType": "address",
          "name": "account",
          "type": "address"
        },
        {
          "internalType": "bytes32",
          "name": "neededRole",
          "type": "bytes32"
        }
      ],
      "name": "AccessControlUnauthorizedAccount",
      "type": "error"
    },
    {
      "inputs": [],
      "name": "ECDSAInvalidSignature",
      "type": "error"
    },
    {
      "inputs": [
        {
          "internalType": "uint256",
          "name": "length",
          "type": "uint256"
        }
      ],
      "name": "ECDSAInvalidSignatureLength",
      "type": "error"
    },
    {
      "inputs": [
        {
          "internalType": "bytes32",
          "name": "s",
          "type": "bytes32"
        }
      ],
      "name": "ECDSAInvalidSignatureS",
      "type": "error"
    },
    {
      "inputs": [
        {
          "internalType": "address",
          "name": "spender",
          "type": "address"
        },
        {
          "internalType": "uint256",
          "name": "allowance",
          "type": "uint256"
        },
        {
          "internalType": "uint256",
          "name": "needed",
          "type": "uint256"
        }
      ],
      "name": "ERC20InsufficientAllowance",
      "type": "error"
    },
    {
      "inputs": [
        {
          "internalType": "address",
          "name": "sender",
          "type": "address"
        },
        {
          "internalType": "uint256",
          "name": "balance",
          "type": "uint256"
        },
        {
          "internalType": "uint256",
          "name": "needed",
          "type": "uint256"
        }
      ],
      "name": "ERC20InsufficientBalance",
      "type": "error"
    },
    {
      "inputs": [
        {
          "internalType": "address",
          "name": "approver",
          "type": "address"
        }
      ],
      "name": "ERC20InvalidApprover",
      "type": "error"
    },
    {
      "inputs": [
        {
          "internalType": "address",
          "name": "receiver",
          "type": "address"
        }
      ],
      "name": "ERC20InvalidReceiver",
      "type": "error"
    },
    {
      "inputs": [
        {
          "internalType": "address",
          "name": "sender",
          "type": "address"
        }
      ],
      "name": "ERC20InvalidSender",
      "type": "error"
    },
    {
      "inputs": [
        {
          "internalType": "address",
          "name": "spender",
          "type": "address"
        }
      ],
      "name": "ERC20InvalidSpender",
      "type": "error"
    },
    {
      "inputs": [],
      "name": "ErrorInsufficientFunds",
      "type": "error"
    },
    {
      "inputs": [],
      "name": "InvalidShortString",
      "type": "error"
    },
    {
      "inputs": [
        {
          "internalType": "address",
          "name": "owner",
          "type": "address"
        }
      ],
      "name": "OwnableInvalidOwner",
      "type": "error"
    },
    {
      "inputs": [
        {
          "internalType": "address",
          "name": "account",
          "type": "address"
        }
      ],
      "name": "OwnableUnauthorizedAccount",
      "type": "error"
    },
    {
      "inputs": [],
      "name": "SignerNotMessageSender",
      "type": "error"
    },
    {
      "inputs": [],
      "name": "SignerNotOwner",
      "type": "error"
    },
    {
      "inputs": [
        {
          "internalType": "string",
          "name": "str",
          "type": "string"
        }
      ],
      "name": "StringTooLong",
      "type": "error"
    },
    {
      "anonymous": false,
      "inputs": [
        {
          "indexed": true,
          "internalType": "address",
          "name": "owner",
          "type": "address"
        },
        {
          "indexed": true,
          "internalType": "address",
          "name": "spender",
          "type": "address"
        },
        {
          "indexed": false,
          "internalType": "uint256",
          "name": "value",
          "type": "uint256"
        }
      ],
      "name": "Approval",
      "type": "event"
    },
    {
      "anonymous": false,
      "inputs": [
        {
          "indexed": true,
          "internalType": "address",
          "name": "owner",
          "type": "address"
        },
        {
          "indexed": true,
          "internalType": "address",
          "name": "spender",
          "type": "address"
        }
      ],
      "name": "ApprovalEncrypted",
      "type": "event"
    },
    {
      "anonymous": false,
      "inputs": [],
      "name": "EIP712DomainChanged",
      "type": "event"
    },
    {
      "anonymous": false,
      "inputs": [
        {
          "indexed": true,
          "internalType": "address",
          "name": "to",
          "type": "address"
        },
        {
          "indexed": false,
          "internalType": "euint128",
          "name": "amount",
          "type": "uint256"
        }
      ],
      "name": "FhunderEMint",
      "type": "event"
    },
    {
      "anonymous": false,
      "inputs": [
        {
          "indexed": true,
          "internalType": "address",
          "name": "to",
          "type": "address"
        },
        {
          "indexed": false,
          "internalType": "uint256",
          "name": "amount",
          "type": "uint256"
        }
      ],
      "name": "FhunderMint",
      "type": "event"
    },
    {
      "anonymous": false,
      "inputs": [
        {
          "indexed": true,
          "internalType": "address",
          "name": "from",
          "type": "address"
        },
        {
          "indexed": true,
          "internalType": "address",
          "name": "to",
          "type": "address"
        },
        {
          "indexed": false,
          "internalType": "uint256",
          "name": "amount",
          "type": "uint256"
        }
      ],
      "name": "FhunderTransfer",
      "type": "event"
    },
    {
      "anonymous": false,
      "inputs": [
        {
          "indexed": true,
          "internalType": "address",
          "name": "previousOwner",
          "type": "address"
        },
        {
          "indexed": true,
          "internalType": "address",
          "name": "newOwner",
          "type": "address"
        }
      ],
      "name": "OwnershipTransferred",
      "type": "event"
    },
    {
      "anonymous": false,
      "inputs": [
        {
          "indexed": true,
          "internalType": "bytes32",
          "name": "role",
          "type": "bytes32"
        },
        {
          "indexed": true,
          "internalType": "bytes32",
          "name": "previousAdminRole",
          "type": "bytes32"
        },
        {
          "indexed": true,
          "internalType": "bytes32",
          "name": "newAdminRole",
          "type": "bytes32"
        }
      ],
      "name": "RoleAdminChanged",
      "type": "event"
    },
    {
      "anonymous": false,
      "inputs": [
        {
          "indexed": true,
          "internalType": "bytes32",
          "name": "role",
          "type": "bytes32"
        },
        {
          "indexed": true,
          "internalType": "address",
          "name": "account",
          "type": "address"
        },
        {
          "indexed": true,
          "internalType": "address",
          "name": "sender",
          "type": "address"
        }
      ],
      "name": "RoleGranted",
      "type": "event"
    },
    {
      "anonymous": false,
      "inputs": [
        {
          "indexed": true,
          "internalType": "bytes32",
          "name": "role",
          "type": "bytes32"
        },
        {
          "indexed": true,
          "internalType": "address",
          "name": "account",
          "type": "address"
        },
        {
          "indexed": true,
          "internalType": "address",
          "name": "sender",
          "type": "address"
        }
      ],
      "name": "RoleRevoked",
      "type": "event"
    },
    {
      "anonymous": false,
      "inputs": [
        {
          "indexed": true,
          "internalType": "address",
          "name": "from",
          "type": "address"
        },
        {
          "indexed": true,
          "internalType": "address",
          "name": "to",
          "type": "address"
        },
        {
          "indexed": false,
          "internalType": "uint256",
          "name": "value",
          "type": "uint256"
        }
      ],
      "name": "Transfer",
      "type": "event"
    },
    {
      "anonymous": false,
      "inputs": [
        {
          "indexed": true,
          "internalType": "address",
          "name": "from",
          "type": "address"
        },
        {
          "indexed": true,
          "internalType": "address",
          "name": "to",
          "type": "address"
        }
      ],
      "name": "TransferEncrypted",
      "type": "event"
    },
    {
      "inputs": [],
      "name": "BURNER_ROLE",
      "outputs": [
        {
          "internalType": "bytes32",
          "name": "",
          "type": "bytes32"
        }
      ],
      "stateMutability": "view",
      "type": "function"
    },
    {
      "inputs": [],
      "name": "DEFAULT_ADMIN_ROLE",
      "outputs": [
        {
          "internalType": "bytes32",
          "name": "",
          "type": "bytes32"
        }
      ],
      "stateMutability": "view",
      "type": "function"
    },
    {
      "inputs": [],
      "name": "MINTER_ROLE",
      "outputs": [
        {
          "internalType": "bytes32",
          "name": "",
          "type": "bytes32"
        }
      ],
      "stateMutability": "view",
      "type": "function"
    },
    {
      "inputs": [
        {
          "internalType": "address",
          "name": "to",
          "type": "address"
        },
        {
          "internalType": "euint128",
          "name": "amount",
          "type": "uint256"
        }
      ],
      "name": "_transferEncrypted",
      "outputs": [
        {
          "internalType": "euint128",
          "name": "",
          "type": "uint256"
        }
      ],
      "stateMutability": "nonpayable",
      "type": "function"
    },
    {
      "inputs": [
        {
          "internalType": "address",
          "name": "from",
          "type": "address"
        },
        {
          "internalType": "address",
          "name": "to",
          "type": "address"
        },
        {
          "internalType": "euint128",
          "name": "value",
          "type": "uint256"
        }
      ],
      "name": "_transferFromEncrypted",
      "outputs": [
        {
          "internalType": "euint128",
          "name": "",
          "type": "uint256"
        }
      ],
      "stateMutability": "nonpayable",
      "type": "function"
    },
    {
      "inputs": [
        {
          "internalType": "address",
          "name": "owner",
          "type": "address"
        },
        {
          "internalType": "address",
          "name": "spender",
          "type": "address"
        }
      ],
      "name": "allowance",
      "outputs": [
        {
          "internalType": "uint256",
          "name": "",
          "type": "uint256"
        }
      ],
      "stateMutability": "view",
      "type": "function"
    },
    {
      "inputs": [
        {
          "internalType": "address",
          "name": "owner",
          "type": "address"
        },
        {
          "internalType": "address",
          "name": "spender",
          "type": "address"
        },
        {
          "components": [
            {
              "internalType": "bytes32",
              "name": "publicKey",
              "type": "bytes32"
            },
            {
              "internalType": "bytes",
              "name": "signature",
              "type": "bytes"
            }
          ],
          "internalType": "struct Permission",
          "name": "permission",
          "type": "tuple"
        }
      ],
      "name": "allowanceEncrypted",
      "outputs": [
        {
          "internalType": "string",
          "name": "",
          "type": "string"
        }
      ],
      "stateMutability": "view",
      "type": "function"
    },
    {
      "inputs": [
        {
          "internalType": "address",
          "name": "spender",
          "type": "address"
        },
        {
          "internalType": "uint256",
          "name": "value",
          "type": "uint256"
        }
      ],
      "name": "approve",
      "outputs": [
        {
          "internalType": "bool",
          "name": "",
          "type": "bool"
        }
      ],
      "stateMutability": "nonpayable",
      "type": "function"
    },
    {
      "inputs": [
        {
          "internalType": "address",
          "name": "spender",
          "type": "address"
        },
        {
          "components": [
            {
              "internalType": "bytes",
              "name": "data",
              "type": "bytes"
            }
          ],
          "internalType": "struct inEuint128",
          "name": "value",
          "type": "tuple"
        }
      ],
      "name": "approveEncrypted",
      "outputs": [
        {
          "internalType": "bool",
          "name": "",
          "type": "bool"
        }
      ],
      "stateMutability": "nonpayable",
      "type": "function"
    },
    {
      "inputs": [
        {
          "internalType": "address",
          "name": "account",
          "type": "address"
        }
      ],
      "name": "balanceOf",
      "outputs": [
        {
          "internalType": "uint256",
          "name": "",
          "type": "uint256"
        }
      ],
      "stateMutability": "view",
      "type": "function"
    },
    {
      "inputs": [
        {
          "internalType": "address",
          "name": "account",
          "type": "address"
        },
        {
          "components": [
            {
              "internalType": "bytes32",
              "name": "publicKey",
              "type": "bytes32"
            },
            {
              "internalType": "bytes",
              "name": "signature",
              "type": "bytes"
            }
          ],
          "internalType": "struct Permission",
          "name": "auth",
          "type": "tuple"
        }
      ],
      "name": "balanceOfEncrypted",
      "outputs": [
        {
          "internalType": "string",
          "name": "",
          "type": "string"
        }
      ],
      "stateMutability": "view",
      "type": "function"
    },
    {
      "inputs": [],
      "name": "balanceOfEncrypted",
      "outputs": [
        {
          "internalType": "euint128",
          "name": "",
          "type": "uint256"
        }
      ],
      "stateMutability": "view",
      "type": "function"
    },
    {
      "inputs": [
        {
          "internalType": "address",
          "name": "account",
          "type": "address"
        },
        {
          "components": [
            {
              "internalType": "bytes",
              "name": "data",
              "type": "bytes"
            }
          ],
          "internalType": "struct inEuint128",
          "name": "encryptedAmount",
          "type": "tuple"
        }
      ],
      "name": "burnFromEncrypted",
      "outputs": [],
      "stateMutability": "nonpayable",
      "type": "function"
    },
    {
      "inputs": [],
      "name": "decimals",
      "outputs": [
        {
          "internalType": "uint8",
          "name": "",
          "type": "uint8"
        }
      ],
      "stateMutability": "view",
      "type": "function"
    },
    {
      "inputs": [
        {
          "internalType": "address",
          "name": "account",
          "type": "address"
        }
      ],
      "name": "decryptedBalanceOf",
      "outputs": [
        {
          "internalType": "uint256",
          "name": "",
          "type": "uint256"
        }
      ],
      "stateMutability": "view",
      "type": "function"
    },
    {
      "inputs": [],
      "name": "decryptedBalanceOf",
      "outputs": [
        {
          "internalType": "uint256",
          "name": "",
          "type": "uint256"
        }
      ],
      "stateMutability": "view",
      "type": "function"
    },
    {
      "inputs": [],
      "name": "eip712Domain",
      "outputs": [
        {
          "internalType": "bytes1",
          "name": "fields",
          "type": "bytes1"
        },
        {
          "internalType": "string",
          "name": "name",
          "type": "string"
        },
        {
          "internalType": "string",
          "name": "version",
          "type": "string"
        },
        {
          "internalType": "uint256",
          "name": "chainId",
          "type": "uint256"
        },
        {
          "internalType": "address",
          "name": "verifyingContract",
          "type": "address"
        },
        {
          "internalType": "bytes32",
          "name": "salt",
          "type": "bytes32"
        },
        {
          "internalType": "uint256[]",
          "name": "extensions",
          "type": "uint256[]"
        }
      ],
      "stateMutability": "view",
      "type": "function"
    },
    {
      "inputs": [
        {
          "internalType": "bytes32",
          "name": "role",
          "type": "bytes32"
        }
      ],
      "name": "getRoleAdmin",
      "outputs": [
        {
          "internalType": "bytes32",
          "name": "",
          "type": "bytes32"
        }
      ],
      "stateMutability": "view",
      "type": "function"
    },
    {
      "inputs": [
        {
          "internalType": "bytes32",
          "name": "role",
          "type": "bytes32"
        },
        {
          "internalType": "address",
          "name": "account",
          "type": "address"
        }
      ],
      "name": "grantRole",
      "outputs": [],
      "stateMutability": "nonpayable",
      "type": "function"
    },
    {
      "inputs": [
        {
          "internalType": "bytes32",
          "name": "role",
          "type": "bytes32"
        },
        {
          "internalType": "address",
          "name": "account",
          "type": "address"
        }
      ],
      "name": "hasRole",
      "outputs": [
        {
          "internalType": "bool",
          "name": "",
          "type": "bool"
        }
      ],
      "stateMutability": "view",
      "type": "function"
    },
    {
      "inputs": [
        {
          "internalType": "uint256",
          "name": "amount",
          "type": "uint256"
        }
      ],
      "name": "mint",
      "outputs": [],
      "stateMutability": "nonpayable",
      "type": "function"
    },
    {
      "inputs": [
        {
          "internalType": "address",
          "name": "to",
          "type": "address"
        },
        {
          "components": [
            {
              "internalType": "bytes",
              "name": "data",
              "type": "bytes"
            }
          ],
          "internalType": "struct inEuint128",
          "name": "encryptedAmount",
          "type": "tuple"
        }
      ],
      "name": "mintEncrypted",
      "outputs": [],
      "stateMutability": "nonpayable",
      "type": "function"
    },
    {
      "inputs": [],
      "name": "name",
      "outputs": [
        {
          "internalType": "string",
          "name": "",
          "type": "string"
        }
      ],
      "stateMutability": "view",
      "type": "function"
    },
    {
      "inputs": [],
      "name": "owner",
      "outputs": [
        {
          "internalType": "address",
          "name": "",
          "type": "address"
        }
      ],
      "stateMutability": "view",
      "type": "function"
    },
    {
      "inputs": [],
      "name": "renounceOwnership",
      "outputs": [],
      "stateMutability": "nonpayable",
      "type": "function"
    },
    {
      "inputs": [
        {
          "internalType": "bytes32",
          "name": "role",
          "type": "bytes32"
        },
        {
          "internalType": "address",
          "name": "callerConfirmation",
          "type": "address"
        }
      ],
      "name": "renounceRole",
      "outputs": [],
      "stateMutability": "nonpayable",
      "type": "function"
    },
    {
      "inputs": [
        {
          "internalType": "bytes32",
          "name": "role",
          "type": "bytes32"
        },
        {
          "internalType": "address",
          "name": "account",
          "type": "address"
        }
      ],
      "name": "revokeRole",
      "outputs": [],
      "stateMutability": "nonpayable",
      "type": "function"
    },
    {
      "inputs": [
        {
          "internalType": "bytes4",
          "name": "interfaceId",
          "type": "bytes4"
        }
      ],
      "name": "supportsInterface",
      "outputs": [
        {
          "internalType": "bool",
          "name": "",
          "type": "bool"
        }
      ],
      "stateMutability": "view",
      "type": "function"
    },
    {
      "inputs": [],
      "name": "symbol",
      "outputs": [
        {
          "internalType": "string",
          "name": "",
          "type": "string"
        }
      ],
      "stateMutability": "view",
      "type": "function"
    },
    {
      "inputs": [],
      "name": "totalSupply",
      "outputs": [
        {
          "internalType": "uint256",
          "name": "",
          "type": "uint256"
        }
      ],
      "stateMutability": "view",
      "type": "function"
    },
    {
      "inputs": [
        {
          "internalType": "address",
          "name": "to",
          "type": "address"
        },
        {
          "internalType": "uint256",
          "name": "value",
          "type": "uint256"
        }
      ],
      "name": "transfer",
      "outputs": [
        {
          "internalType": "bool",
          "name": "",
          "type": "bool"
        }
      ],
      "stateMutability": "nonpayable",
      "type": "function"
    },
    {
      "inputs": [
        {
          "internalType": "address",
          "name": "to",
          "type": "address"
        },
        {
          "components": [
            {
              "internalType": "bytes",
              "name": "data",
              "type": "bytes"
            }
          ],
          "internalType": "struct inEuint128",
          "name": "encryptedAmount",
          "type": "tuple"
        }
      ],
      "name": "transferEncrypted",
      "outputs": [
        {
          "internalType": "euint128",
          "name": "",
          "type": "uint256"
        }
      ],
      "stateMutability": "nonpayable",
      "type": "function"
    },
    {
      "inputs": [
        {
          "internalType": "address",
          "name": "from",
          "type": "address"
        },
        {
          "internalType": "address",
          "name": "to",
          "type": "address"
        },
        {
          "internalType": "uint256",
          "name": "value",
          "type": "uint256"
        }
      ],
      "name": "transferFrom",
      "outputs": [
        {
          "internalType": "bool",
          "name": "",
          "type": "bool"
        }
      ],
      "stateMutability": "nonpayable",
      "type": "function"
    },
    {
      "inputs": [
        {
          "internalType": "address",
          "name": "from",
          "type": "address"
        },
        {
          "internalType": "address",
          "name": "to",
          "type": "address"
        },
        {
          "components": [
            {
              "internalType": "bytes",
              "name": "data",
              "type": "bytes"
            }
          ],
          "internalType": "struct inEuint128",
          "name": "value",
          "type": "tuple"
        }
      ],
      "name": "transferFromEncrypted",
      "outputs": [
        {
          "internalType": "euint128",
          "name": "",
          "type": "uint256"
        }
      ],
      "stateMutability": "nonpayable",
      "type": "function"
    },
    {
      "inputs": [
        {
          "internalType": "address",
          "name": "newOwner",
          "type": "address"
        }
      ],
      "name": "transferOwnership",
      "outputs": [],
      "stateMutability": "nonpayable",
      "type": "function"
    },
    {
      "inputs": [
        {
          "internalType": "uint128",
          "name": "amount",
          "type": "uint128"
        }
      ],
      "name": "unwrap",
      "outputs": [],
      "stateMutability": "nonpayable",
      "type": "function"
    },
    {
      "inputs": [
        {
          "internalType": "uint128",
          "name": "amount",
          "type": "uint128"
        }
      ],
      "name": "wrap",
      "outputs": [],
      "stateMutability": "nonpayable",
      "type": "function"
    }
  ],
  "transactionHash": "0x75dcf34f72d660cff29e24e2c36bc7f8ae11e56970019e2d318c4829444cc8d2",
  "args": [
    "FhunderToken",
    "FTK",
    18,
    "0xd7702EB6Ca4C101C918f7d4eaBeDc36e36260482"
  ],
  "numDeployments": 1,
  "solcInputHash": "57edf8d2560ec741cf739ba06f34f995",
  "bytecode": "0x610160604052620000176000620002ba60201b60201c565b600b553480156200002757600080fd5b50604051620067313803806200673183398181016040528101906200004d91906200099b565b806040518060400160405280601181526020017f4668656e6978205065726d697373696f6e0000000000000000000000000000008152506040518060400160405280600381526020017f312e30000000000000000000000000000000000000000000000000000000000081525086868160039081620000cd919062000c96565b508060049081620000df919062000c96565b505050620000f8600583620002d660201b90919060201c565b610120818152505062000116600682620002d660201b90919060201c565b6101408181525050818051906020012060e08181525050808051906020012061010081815250504660a08181525050620001556200032e60201b60201c565b608081815250503073ffffffffffffffffffffffffffffffffffffffff1660c08173ffffffffffffffffffffffffffffffffffffffff16815250505050600073ffffffffffffffffffffffffffffffffffffffff168173ffffffffffffffffffffffffffffffffffffffff1603620002075760006040517f1e4fbdf7000000000000000000000000000000000000000000000000000000008152600401620001fe919062000d8e565b60405180910390fd5b62000218816200038b60201b60201c565b5081600c60006101000a81548160ff021916908360ff160217905550620002496000801b336200045160201b60201c565b506200027c7f9f2df0fed2c77648de5860a4cc508cd0818c85b8b8a1ab4ceeef8d981c8956a6336200045160201b60201c565b50620002af7f3c11d16cbaffd01df69ce1c404f6340ee057498f5f00246190ea54220576a848336200045160201b60201c565b5050505050620010e8565b6000620002cf8260046200055560201b60201c565b9050919050565b6000602083511015620002fc57620002f4836200060c60201b60201c565b905062000328565b826200030e836200067960201b60201c565b60000190816200031f919062000c96565b5060ff60001b90505b92915050565b60007f8b73c3c69bb8fe3d512ecc4cf759cc79239f7b179b0ffacaa9a75d522b39400f60e0516101005146306040516020016200037095949392919062000dd7565b60405160208183030381529060405280519060200120905090565b6000600760009054906101000a900473ffffffffffffffffffffffffffffffffffffffff16905081600760006101000a81548173ffffffffffffffffffffffffffffffffffffffff021916908373ffffffffffffffffffffffffffffffffffffffff1602179055508173ffffffffffffffffffffffffffffffffffffffff168173ffffffffffffffffffffffffffffffffffffffff167f8be0079c531659141344cd1fd0a4f28419497f9722a3daafe3b4186f6b6457e060405160405180910390a35050565b60006200046583836200068360201b60201c565b6200054a5760016008600085815260200190815260200160002060000160008473ffffffffffffffffffffffffffffffffffffffff1673ffffffffffffffffffffffffffffffffffffffff16815260200190815260200160002060006101000a81548160ff021916908315150217905550620004e6620006ee60201b60201c565b73ffffffffffffffffffffffffffffffffffffffff168273ffffffffffffffffffffffffffffffffffffffff16847f2f8788117e7eff1d82e926ec794901d17c78024a50270940304540a733656f0d60405160405180910390a4600190506200054f565b600090505b92915050565b60006060608073ffffffffffffffffffffffffffffffffffffffff166319e1c5c46200058786620006f660201b60201c565b856040518363ffffffff1660e01b8152600401620005a792919062000ea2565b600060405180830381865afa158015620005c5573d6000803e3d6000fd5b505050506040513d6000823e3d601f19601f82011682018060405250810190620005f0919062000f8a565b905062000603816200075760201b60201c565b91505092915050565b600080829050601f815111156200065c57826040517f305a27a90000000000000000000000000000000000000000000000000000000081526004016200065391906200102d565b60405180910390fd5b8051816200066a9062001078565b60001c1760001b915050919050565b6000819050919050565b60006008600084815260200190815260200160002060000160008373ffffffffffffffffffffffffffffffffffffffff1673ffffffffffffffffffffffffffffffffffffffff16815260200190815260200160002060009054906101000a900460ff16905092915050565b600033905090565b6060602067ffffffffffffffff81111562000716576200071562000794565b5b6040519080825280601f01601f191660200182016040528015620007495781602001600182028036833780820191505090505b509050816020820152919050565b600060208201519050919050565b6000604051905090565b600080fd5b600080fd5b600080fd5b600080fd5b6000601f19601f8301169050919050565b7f4e487b7100000000000000000000000000000000000000000000000000000000600052604160045260246000fd5b620007ce8262000783565b810181811067ffffffffffffffff82111715620007f057620007ef62000794565b5b80604052505050565b60006200080562000765565b9050620008138282620007c3565b919050565b600067ffffffffffffffff82111562000836576200083562000794565b5b620008418262000783565b9050602081019050919050565b60005b838110156200086e57808201518184015260208101905062000851565b60008484015250505050565b6000620008916200088b8462000818565b620007f9565b905082815260208101848484011115620008b057620008af6200077e565b5b620008bd8482856200084e565b509392505050565b600082601f830112620008dd57620008dc62000779565b5b8151620008ef8482602086016200087a565b91505092915050565b600060ff82169050919050565b6200091081620008f8565b81146200091c57600080fd5b50565b600081519050620009308162000905565b92915050565b600073ffffffffffffffffffffffffffffffffffffffff82169050919050565b6000620009638262000936565b9050919050565b620009758162000956565b81146200098157600080fd5b50565b60008151905062000995816200096a565b92915050565b60008060008060808587031215620009b857620009b76200076f565b5b600085015167ffffffffffffffff811115620009d957620009d862000774565b5b620009e787828801620008c5565b945050602085015167ffffffffffffffff81111562000a0b5762000a0a62000774565b5b62000a1987828801620008c5565b935050604062000a2c878288016200091f565b925050606062000a3f8782880162000984565b91505092959194509250565b600081519050919050565b7f4e487b7100000000000000000000000000000000000000000000000000000000600052602260045260246000fd5b6000600282049050600182168062000a9e57607f821691505b60208210810362000ab45762000ab362000a56565b5b50919050565b60008190508160005260206000209050919050565b60006020601f8301049050919050565b600082821b905092915050565b60006008830262000b1e7fffffffffffffffffffffffffffffffffffffffffffffffffffffffffffffffff8262000adf565b62000b2a868362000adf565b95508019841693508086168417925050509392505050565b6000819050919050565b6000819050919050565b600062000b7762000b7162000b6b8462000b42565b62000b4c565b62000b42565b9050919050565b6000819050919050565b62000b938362000b56565b62000bab62000ba28262000b7e565b84845462000aec565b825550505050565b600090565b62000bc262000bb3565b62000bcf81848462000b88565b505050565b5b8181101562000bf75762000beb60008262000bb8565b60018101905062000bd5565b5050565b601f82111562000c465762000c108162000aba565b62000c1b8462000acf565b8101602085101562000c2b578190505b62000c4362000c3a8562000acf565b83018262000bd4565b50505b505050565b600082821c905092915050565b600062000c6b6000198460080262000c4b565b1980831691505092915050565b600062000c86838362000c58565b9150826002028217905092915050565b62000ca18262000a4b565b67ffffffffffffffff81111562000cbd5762000cbc62000794565b5b62000cc9825462000a85565b62000cd682828562000bfb565b600060209050601f83116001811462000d0e576000841562000cf9578287015190505b62000d05858262000c78565b86555062000d75565b601f19841662000d1e8662000aba565b60005b8281101562000d485784890151825560018201915060208501945060208101905062000d21565b8683101562000d68578489015162000d64601f89168262000c58565b8355505b6001600288020188555050505b505050505050565b62000d888162000956565b82525050565b600060208201905062000da5600083018462000d7d565b92915050565b6000819050919050565b62000dc08162000dab565b82525050565b62000dd18162000b42565b82525050565b600060a08201905062000dee600083018862000db5565b62000dfd602083018762000db5565b62000e0c604083018662000db5565b62000e1b606083018562000dc6565b62000e2a608083018462000d7d565b9695505050505050565b600081519050919050565b600082825260208201905092915050565b600062000e5d8262000e34565b62000e69818562000e3f565b935062000e7b8185602086016200084e565b62000e868162000783565b840191505092915050565b62000e9c81620008f8565b82525050565b6000604082019050818103600083015262000ebe818562000e50565b905062000ecf602083018462000e91565b9392505050565b600067ffffffffffffffff82111562000ef45762000ef362000794565b5b62000eff8262000783565b9050602081019050919050565b600062000f2362000f1d8462000ed6565b620007f9565b90508281526020810184848401111562000f425762000f416200077e565b5b62000f4f8482856200084e565b509392505050565b600082601f83011262000f6f5762000f6e62000779565b5b815162000f8184826020860162000f0c565b91505092915050565b60006020828403121562000fa35762000fa26200076f565b5b600082015167ffffffffffffffff81111562000fc45762000fc362000774565b5b62000fd28482850162000f57565b91505092915050565b600082825260208201905092915050565b600062000ff98262000a4b565b62001005818562000fdb565b9350620010178185602086016200084e565b620010228162000783565b840191505092915050565b6000602082019050818103600083015262001049818462000fec565b905092915050565b6000819050602082019050919050565b60006200106f825162000dab565b80915050919050565b6000620010858262000e34565b82620010918462001051565b90506200109e8162001061565b92506020821015620010e157620010dc7fffffffffffffffffffffffffffffffffffffffffffffffffffffffffffffffff8360200360080262000adf565b831692505b5050919050565b60805160a05160c05160e0516101005161012051610140516155ee6200114360003960006123f8015260006123bd01526000613d0201526000613ce1015260006130150152600061306b0152600061309401526155ee6000f3fe608060405234801561001057600080fd5b50600436106102275760003560e01c8063857a92bb11610130578063bf34a8ab116100b8578063dd62ed3e1161007c578063dd62ed3e146106ca578063e313497e146106fa578063f0f2d71f14610718578063f2fde38b14610736578063f9e23e051461075257610227565b8063bf34a8ab14610614578063d539139314610644578063d547741f14610662578063d918156e1461067e578063d9945741146106ae57610227565b806395d89b41116100ff57806395d89b411461055c578063a0712d681461057a578063a13da31514610596578063a217fddf146105c6578063a9059cbb146105e457610227565b8063857a92bb146104c25780638624a349146104de5780638da5cb5b1461050e57806391d148541461052c57610227565b806336568abe116101b357806370a082311161018257806370a0823114610418578063715018a6146104485780638468bfc01461045257806384b0196e1461048257806385084edd146104a657610227565b806336568abe1461038057806339c217f71461039c5780634e6db477146103cc57806360277204146103e857610227565b806323b872dd116101fa57806323b872dd146102c8578063248a9ca3146102f8578063282c51f3146103285780632f2ff15d14610346578063313ce5671461036257610227565b806301ffc9a71461022c57806306fdde031461025c578063095ea7b31461027a57806318160ddd146102aa575b600080fd5b610246600480360381019061024191906142ac565b610782565b60405161025391906142f4565b60405180910390f35b6102646107fc565b604051610271919061439f565b60405180910390f35b610294600480360381019061028f9190614455565b61088e565b6040516102a191906142f4565b60405180910390f35b6102b26108b1565b6040516102bf91906144a4565b60405180910390f35b6102e260048036038101906102dd91906144bf565b6108bb565b6040516102ef91906142f4565b60405180910390f35b610312600480360381019061030d9190614548565b6108ea565b60405161031f9190614584565b60405180910390f35b61033061090a565b60405161033d9190614584565b60405180910390f35b610360600480360381019061035b919061459f565b61092e565b005b61036a610950565b60405161037791906145fb565b60405180910390f35b61039a6004803603810190610395919061459f565b610967565b005b6103b660048036038101906103b1919061463a565b6109e2565b6040516103c391906146d1565b60405180910390f35b6103e660048036038101906103e1919061463a565b610a07565b005b61040260048036038101906103fd9190614897565b610ab0565b60405161040f919061439f565b60405180910390f35b610432600480360381019061042d91906148f3565b610be6565b60405161043f91906144a4565b60405180910390f35b610450610c2e565b005b61046c6004803603810190610467919061494c565b610c42565b60405161047991906146d1565b60405180910390f35b61048a610d7b565b60405161049d9796959493929190614aa7565b60405180910390f35b6104c060048036038101906104bb919061463a565b610e25565b005b6104dc60048036038101906104d79190614b73565b610e6f565b005b6104f860048036038101906104f39190614ba0565b610fb5565b60405161050591906146d1565b60405180910390f35b610516610fdc565b6040516105239190614c0f565b60405180910390f35b6105466004803603810190610541919061459f565b611006565b60405161055391906142f4565b60405180910390f35b610564611071565b604051610571919061439f565b60405180910390f35b610594600480360381019061058f9190614c2a565b611103565b005b6105b060048036038101906105ab91906148f3565b611189565b6040516105bd91906144a4565b60405180910390f35b6105ce6111ec565b6040516105db9190614584565b60405180910390f35b6105fe60048036038101906105f99190614455565b6111f3565b60405161060b91906142f4565b60405180910390f35b61062e60048036038101906106299190614c57565b611216565b60405161063b91906146d1565b60405180910390f35b61064c611298565b6040516106599190614584565b60405180910390f35b61067c6004803603810190610677919061459f565b6112bc565b005b6106986004803603810190610693919061463a565b6112de565b6040516106a591906142f4565b60405180910390f35b6106c860048036038101906106c39190614b73565b611306565b005b6106e460048036038101906106df9190614c97565b611437565b6040516106f191906144a4565b60405180910390f35b6107026114be565b60405161070f91906144a4565b60405180910390f35b61072061151f565b60405161072d91906146d1565b60405180910390f35b610750600480360381019061074b91906148f3565b611566565b005b61076c60048036038101906107679190614cf6565b6115ec565b604051610779919061439f565b60405180910390f35b60007f7965db0b000000000000000000000000000000000000000000000000000000007bffffffffffffffffffffffffffffffffffffffffffffffffffffffff1916827bffffffffffffffffffffffffffffffffffffffffffffffffffffffff191614806107f557506107f4826116ed565b5b9050919050565b60606003805461080b90614d94565b80601f016020809104026020016040519081016040528092919081815260200182805461083790614d94565b80156108845780601f1061085957610100808354040283529160200191610884565b820191906000526020600020905b81548152906001019060200180831161086757829003601f168201915b5050505050905090565b600080610899611757565b90506108a681858561175f565b600191505092915050565b6000600254905090565b6000806108c6611757565b90506108d3858285611771565b6108de858585611805565b60019150509392505050565b600060086000838152602001908152602001600020600101549050919050565b7f3c11d16cbaffd01df69ce1c404f6340ee057498f5f00246190ea54220576a84881565b610937826108ea565b610940816118f9565b61094a838361190d565b50505050565b6000600c60009054906101000a900460ff16905090565b61096f611757565b73ffffffffffffffffffffffffffffffffffffffff168173ffffffffffffffffffffffffffffffffffffffff16146109d3576040517f6697b23200000000000000000000000000000000000000000000000000000000815260040160405180910390fd5b6109dd82826119ff565b505050565b60006109ff836109fa846109f590614e1d565b611af2565b611216565b905092915050565b7f9f2df0fed2c77648de5860a4cc508cd0818c85b8b8a1ab4ceeef8d981c8956a6610a31816118f9565b3373ffffffffffffffffffffffffffffffffffffffff167f378e77d2e34f3f851c6ee41256441f4406f1519e60f9d48fa31035c23c40e77c610a7b84610a7690614e1d565b611af2565b604051610a8891906146d1565b60405180910390a2610aab83610aa684610aa190614e1d565b611af2565b611b08565b505050565b606081836000610b0b7f6bdaeb2d29561f159c7ef98b16b27015fb2aeb87209c7ee656226d912f59927d8460000151604051602001610af0929190614e30565b60405160208183030381529060405280519060200120611baa565b90506000610b1d828560200151611bc4565b90508273ffffffffffffffffffffffffffffffffffffffff168173ffffffffffffffffffffffffffffffffffffffff1614610b84576040517f51c65eae00000000000000000000000000000000000000000000000000000000815260040160405180910390fd5b610bda8660000151600960008a73ffffffffffffffffffffffffffffffffffffffff1673ffffffffffffffffffffffffffffffffffffffff16815260200190815260200160002054611bf090919063ffffffff16565b94505050505092915050565b60008060008373ffffffffffffffffffffffffffffffffffffffff1673ffffffffffffffffffffffffffffffffffffffff168152602001908152602001600020549050919050565b610c36611c04565b610c406000611c8b565b565b6000610c666040518060600160405280602c815260200161551a602c913985611d51565b610ca56040518060400160405280601d81526020017f5b5f7472616e7366657246726f6d456e637279707465645d20546f3a2000000081525084611d51565b610cfe6040518060400160405280602081526020017f5b5f7472616e7366657246726f6d456e637279707465645d2056616c75653a20815250610ce784611d67565b6fffffffffffffffffffffffffffffffff16611e2a565b6000610d0b853385611e40565b9050610d666040518060400160405280602081526020017f5b5f7472616e7366657246726f6d456e637279707465645d205370656e743a20815250610d4f83611d67565b6fffffffffffffffffffffffffffffffff16611e2a565b610d71858583611fea565b9150509392505050565b600060608060008060006060610d8f6123b4565b610d976123ef565b46306000801b600067ffffffffffffffff811115610db857610db76146f1565b5b604051908082528060200260200182016040528015610de65781602001602082028036833780820191505090505b507f0f00000000000000000000000000000000000000000000000000000000000000959493929190965096509650965096509650965090919293949596565b7f3c11d16cbaffd01df69ce1c404f6340ee057498f5f00246190ea54220576a848610e4f816118f9565b610e6a83610e6584610e6090614e1d565b611af2565b61242a565b505050565b6000610e8c826fffffffffffffffffffffffffffffffff16612536565b90506000610eec610edc600960003373ffffffffffffffffffffffffffffffffffffffff1673ffffffffffffffffffffffffffffffffffffffff168152602001908152602001600020548461254a565b83610ee76000612536565b6125c3565b9050610f37600960003373ffffffffffffffffffffffffffffffffffffffff1673ffffffffffffffffffffffffffffffffffffffff1681526020019081526020016000205482612641565b600960003373ffffffffffffffffffffffffffffffffffffffff1673ffffffffffffffffffffffffffffffffffffffff16815260200190815260200160002081905550610f86600b5482612641565b600b81905550610fb033610f9983611d67565b6fffffffffffffffffffffffffffffffff166126ba565b505050565b6000610fd38484610fce85610fc990614e1d565b611af2565b610c42565b90509392505050565b6000600760009054906101000a900473ffffffffffffffffffffffffffffffffffffffff16905090565b60006008600084815260200190815260200160002060000160008373ffffffffffffffffffffffffffffffffffffffff1673ffffffffffffffffffffffffffffffffffffffff16815260200190815260200160002060009054906101000a900460ff16905092915050565b60606004805461108090614d94565b80601f01602080910402602001604051908101604052809291908181526020018280546110ac90614d94565b80156110f95780601f106110ce576101008083540402835291602001916110f9565b820191906000526020600020905b8154815290600101906020018083116110dc57829003601f168201915b5050505050905090565b7f9f2df0fed2c77648de5860a4cc508cd0818c85b8b8a1ab4ceeef8d981c8956a661112d816118f9565b3373ffffffffffffffffffffffffffffffffffffffff167fa83ce22459f86d96cdd9419dd2697353f661ab985164a97ac3ad1ad4a68338ac8360405161117391906144a4565b60405180910390a261118533836126ba565b5050565b60006111d3600960008473ffffffffffffffffffffffffffffffffffffffff1673ffffffffffffffffffffffffffffffffffffffff16815260200190815260200160002054611d67565b6fffffffffffffffffffffffffffffffff169050919050565b6000801b81565b6000806111fe611757565b905061120b818585611805565b600191505092915050565b60008273ffffffffffffffffffffffffffffffffffffffff163373ffffffffffffffffffffffffffffffffffffffff167f43489377e89ebb538a17087c2a4de0bf5c4c8ec12d99d61d6c62c458bc6c170461127085611d67565b60405161127d9190614e8a565b60405180910390a3611290338484611fea565b905092915050565b7f9f2df0fed2c77648de5860a4cc508cd0818c85b8b8a1ab4ceeef8d981c8956a681565b6112c5826108ea565b6112ce816118f9565b6112d883836119ff565b50505050565b60006112fc33846112f7856112f290614e1d565b611af2565b61273c565b6001905092915050565b806fffffffffffffffffffffffffffffffff1661132233610be6565b101561135a576040517ffda7bbda00000000000000000000000000000000000000000000000000000000815260040160405180910390fd5b61137633826fffffffffffffffffffffffffffffffff166129f9565b6000611393826fffffffffffffffffffffffffffffffff16612536565b90506113de600960003373ffffffffffffffffffffffffffffffffffffffff1673ffffffffffffffffffffffffffffffffffffffff1681526020019081526020016000205482612a7b565b600960003373ffffffffffffffffffffffffffffffffffffffff1673ffffffffffffffffffffffffffffffffffffffff1681526020019081526020016000208190555061142d600b5482612a7b565b600b819055505050565b6000600160008473ffffffffffffffffffffffffffffffffffffffff1673ffffffffffffffffffffffffffffffffffffffff16815260200190815260200160002060008373ffffffffffffffffffffffffffffffffffffffff1673ffffffffffffffffffffffffffffffffffffffff16815260200190815260200160002054905092915050565b6000611508600960003373ffffffffffffffffffffffffffffffffffffffff1673ffffffffffffffffffffffffffffffffffffffff16815260200190815260200160002054611d67565b6fffffffffffffffffffffffffffffffff16905090565b6000600960003373ffffffffffffffffffffffffffffffffffffffff1673ffffffffffffffffffffffffffffffffffffffff16815260200190815260200160002054905090565b61156e611c04565b600073ffffffffffffffffffffffffffffffffffffffff168173ffffffffffffffffffffffffffffffffffffffff16036115e05760006040517f1e4fbdf70000000000000000000000000000000000000000000000000000000081526004016115d79190614c0f565b60405180910390fd5b6115e981611c8b565b50565b6060816115f890614ea5565b8460006116507f6bdaeb2d29561f159c7ef98b16b27015fb2aeb87209c7ee656226d912f59927d8460000151604051602001611635929190614e30565b60405160208183030381529060405280519060200120611baa565b90506000611662828560200151611bc4565b90508273ffffffffffffffffffffffffffffffffffffffff168173ffffffffffffffffffffffffffffffffffffffff16146116c9576040517f51c65eae00000000000000000000000000000000000000000000000000000000815260040160405180910390fd5b6116e06116d68989612af3565b8760000135612b7a565b9450505050509392505050565b60007f01ffc9a7000000000000000000000000000000000000000000000000000000007bffffffffffffffffffffffffffffffffffffffffffffffffffffffff1916827bffffffffffffffffffffffffffffffffffffffffffffffffffffffff1916149050919050565b600033905090565b61176c8383836001612bb0565b505050565b600061177d8484611437565b90507fffffffffffffffffffffffffffffffffffffffffffffffffffffffffffffffff81146117ff57818110156117ef578281836040517ffb8f41b20000000000000000000000000000000000000000000000000000000081526004016117e693929190614eb8565b60405180910390fd5b6117fe84848484036000612bb0565b5b50505050565b600073ffffffffffffffffffffffffffffffffffffffff168373ffffffffffffffffffffffffffffffffffffffff16036118775760006040517f96c6fd1e00000000000000000000000000000000000000000000000000000000815260040161186e9190614c0f565b60405180910390fd5b600073ffffffffffffffffffffffffffffffffffffffff168273ffffffffffffffffffffffffffffffffffffffff16036118e95760006040517fec442f050000000000000000000000000000000000000000000000000000000081526004016118e09190614c0f565b60405180910390fd5b6118f4838383612d87565b505050565b61190a81611905611757565b612fac565b50565b60006119198383611006565b6119f45760016008600085815260200190815260200160002060000160008473ffffffffffffffffffffffffffffffffffffffff1673ffffffffffffffffffffffffffffffffffffffff16815260200190815260200160002060006101000a81548160ff021916908315150217905550611991611757565b73ffffffffffffffffffffffffffffffffffffffff168273ffffffffffffffffffffffffffffffffffffffff16847f2f8788117e7eff1d82e926ec794901d17c78024a50270940304540a733656f0d60405160405180910390a4600190506119f9565b600090505b92915050565b6000611a0b8383611006565b15611ae75760006008600085815260200190815260200160002060000160008473ffffffffffffffffffffffffffffffffffffffff1673ffffffffffffffffffffffffffffffffffffffff16815260200190815260200160002060006101000a81548160ff021916908315150217905550611a84611757565b73ffffffffffffffffffffffffffffffffffffffff168273ffffffffffffffffffffffffffffffffffffffff16847ff6391f5c32d9c69d2a47ea670b442974b53935d1edc7fd64eb21e047a839171b60405160405180910390a460019050611aec565b600090505b92915050565b6000611b018260000151612ffd565b9050919050565b611b51600960008473ffffffffffffffffffffffffffffffffffffffff1673ffffffffffffffffffffffffffffffffffffffff1681526020019081526020016000205482612a7b565b600960008473ffffffffffffffffffffffffffffffffffffffff1673ffffffffffffffffffffffffffffffffffffffff16815260200190815260200160002081905550611ba0600b5482612a7b565b600b819055505050565b6000611bbd611bb7613011565b836130c8565b9050919050565b600080600080611bd48686613109565b925092509250611be48282613165565b82935050505092915050565b6060611bfc8383612b7a565b905092915050565b611c0c611757565b73ffffffffffffffffffffffffffffffffffffffff16611c2a610fdc565b73ffffffffffffffffffffffffffffffffffffffff1614611c8957611c4d611757565b6040517f118cdaa7000000000000000000000000000000000000000000000000000000008152600401611c809190614c0f565b60405180910390fd5b565b6000600760009054906101000a900473ffffffffffffffffffffffffffffffffffffffff16905081600760006101000a81548173ffffffffffffffffffffffffffffffffffffffff021916908373ffffffffffffffffffffffffffffffffffffffff1602179055508173ffffffffffffffffffffffffffffffffffffffff168173ffffffffffffffffffffffffffffffffffffffff167f8be0079c531659141344cd1fd0a4f28419497f9722a3daafe3b4186f6b6457e060405160405180910390a35050565b611d6382611d5e836132c9565b6135a6565b5050565b6000611d7282613648565b611d8357611d806000612536565b91505b60008290506000611d9382613655565b90506000608073ffffffffffffffffffffffffffffffffffffffff166373cc01546004846040518363ffffffff1660e01b8152600401611dd4929190614f44565b602060405180830381865afa158015611df1573d6000803e3d6000fd5b505050506040513d601f19601f82011682018060405250810190611e159190614f89565b9050611e20816136b2565b9350505050919050565b611e3c82611e37836136bc565b6135a6565b5050565b6000611e816040518060400160405280601981526020017f5b5f7370656e64416c6c6f77616e63655d204f776e65723a200000000000000081525085611d51565b611ec06040518060400160405280601b81526020017f5b5f7370656e64416c6c6f77616e63655d205370656e6465723a20000000000081525084611d51565b611f196040518060400160405280601981526020017f5b5f7370656e64416c6c6f77616e63655d2056616c75653a2000000000000000815250611f0284611d67565b6fffffffffffffffffffffffffffffffff16611e2a565b6000611f258585612af3565b9050611f6360405180606001604052806025815260200161554660259139611f4c83611d67565b6fffffffffffffffffffffffffffffffff16611e2a565b6000611f6f82856136ce565b9050611fca6040518060400160405280601981526020017f5b5f7370656e64416c6c6f77616e63655d205370656e743a2000000000000000815250611fb383611d67565b6fffffffffffffffffffffffffffffffff16611e2a565b611fde8686611fd98585612641565b61273c565b80925050509392505050565b600061200e6040518060600160405280602381526020016155966023913985611d51565b61204d6040518060400160405280601481526020017f5b5f7472616e73666572496d706c5d20546f3a2000000000000000000000000081525084611d51565b6120a66040518060400160405280601781526020017f5b5f7472616e73666572496d706c5d2056616c75653a2000000000000000000081525061208f84611d67565b6fffffffffffffffffffffffffffffffff16611e2a565b6121216040518060600160405280602b815260200161556b602b913961210a600960008873ffffffffffffffffffffffffffffffffffffffff1673ffffffffffffffffffffffffffffffffffffffff16815260200190815260200160002054611d67565b6fffffffffffffffffffffffffffffffff16611e2a565b600061214661212f84611d67565b6fffffffffffffffffffffffffffffffff16612536565b90506121d76040518060400160405280601981526020017f5b5f7472616e73666572496d706c5d204973206c7465203a20000000000000008152506121d26121cd84600960008b73ffffffffffffffffffffffffffffffffffffffff1673ffffffffffffffffffffffffffffffffffffffff16815260200190815260200160002054613747565b6137c0565b613883565b600061223561222583600960008a73ffffffffffffffffffffffffffffffffffffffff1673ffffffffffffffffffffffffffffffffffffffff16815260200190815260200160002054613747565b836122306000612536565b6125c3565b90506122906040518060400160405280602081526020017f5b5f7472616e73666572496d706c5d20416d6f756e7420746f2073656e643a2081525061227983611d67565b6fffffffffffffffffffffffffffffffff16611e2a565b6122d9600960008773ffffffffffffffffffffffffffffffffffffffff1673ffffffffffffffffffffffffffffffffffffffff1681526020019081526020016000205482612a7b565b600960008773ffffffffffffffffffffffffffffffffffffffff1673ffffffffffffffffffffffffffffffffffffffff16815260200190815260200160002081905550612365600960008873ffffffffffffffffffffffffffffffffffffffff1673ffffffffffffffffffffffffffffffffffffffff1681526020019081526020016000205482612641565b600960008873ffffffffffffffffffffffffffffffffffffffff1673ffffffffffffffffffffffffffffffffffffffff1681526020019081526020016000208190555080925050509392505050565b60606123ea60057f000000000000000000000000000000000000000000000000000000000000000061389990919063ffffffff16565b905090565b606061242560067f000000000000000000000000000000000000000000000000000000000000000061389990919063ffffffff16565b905090565b600061249161248183600960008773ffffffffffffffffffffffffffffffffffffffff1673ffffffffffffffffffffffffffffffffffffffff1681526020019081526020016000205461394990919063ffffffff16565b8361248c6000612536565b6125c3565b90506124dc600960008573ffffffffffffffffffffffffffffffffffffffff1673ffffffffffffffffffffffffffffffffffffffff1681526020019081526020016000205482612641565b600960008573ffffffffffffffffffffffffffffffffffffffff1673ffffffffffffffffffffffffffffffffffffffff1681526020019081526020016000208190555061252b600b5482612641565b600b81905550505050565b600061254382600461395d565b9050919050565b600061255583613648565b612566576125636000612536565b92505b61256f82613648565b6125805761257d6000612536565b91505b6000839050600083905060006125b560048484608073ffffffffffffffffffffffffffffffffffffffff1663650de1cf6139ff565b905080935050505092915050565b60006125ce84613a93565b6125df576125dc6000613aa0565b93505b6125e883613648565b6125f9576125f66000612536565b92505b61260282613648565b612613576126106000612536565b91505b60008490506000849050600084905060006126316004858585613ab4565b9050809450505050509392505050565b600061264c83613648565b61265d5761265a6000612536565b92505b61266682613648565b612677576126746000612536565b91505b6000839050600083905060006126ac60048484608073ffffffffffffffffffffffffffffffffffffffff1663cc2cbeff6139ff565b905080935050505092915050565b600073ffffffffffffffffffffffffffffffffffffffff168273ffffffffffffffffffffffffffffffffffffffff160361272c5760006040517fec442f050000000000000000000000000000000000000000000000000000000081526004016127239190614c0f565b60405180910390fd5b61273860008383612d87565b5050565b600073ffffffffffffffffffffffffffffffffffffffff168373ffffffffffffffffffffffffffffffffffffffff16036127ae5760006040517fe602df050000000000000000000000000000000000000000000000000000000081526004016127a59190614c0f565b60405180910390fd5b600073ffffffffffffffffffffffffffffffffffffffff168273ffffffffffffffffffffffffffffffffffffffff16036128205760006040517f94280d620000000000000000000000000000000000000000000000000000000081526004016128179190614c0f565b60405180910390fd5b80600a60008573ffffffffffffffffffffffffffffffffffffffff1673ffffffffffffffffffffffffffffffffffffffff16815260200190815260200160002060008473ffffffffffffffffffffffffffffffffffffffff1673ffffffffffffffffffffffffffffffffffffffff168152602001908152602001600020819055506128e06040518060400160405280601281526020017f5b5f617070726f76655d204f776e65723a20000000000000000000000000000081525084611d51565b61291f6040518060400160405280601481526020017f5b5f617070726f76655d205370656e6465723a2000000000000000000000000081525083611d51565b6129f46040518060400160405280601281526020017f5b5f617070726f76655d2056616c75653a2000000000000000000000000000008152506129dd600a60008773ffffffffffffffffffffffffffffffffffffffff1673ffffffffffffffffffffffffffffffffffffffff16815260200190815260200160002060008673ffffffffffffffffffffffffffffffffffffffff1673ffffffffffffffffffffffffffffffffffffffff16815260200190815260200160002054611d67565b6fffffffffffffffffffffffffffffffff16611e2a565b505050565b600073ffffffffffffffffffffffffffffffffffffffff168273ffffffffffffffffffffffffffffffffffffffff1603612a6b5760006040517f96c6fd1e000000000000000000000000000000000000000000000000000000008152600401612a629190614c0f565b60405180910390fd5b612a7782600083612d87565b5050565b6000612a8683613648565b612a9757612a946000612536565b92505b612aa082613648565b612ab157612aae6000612536565b91505b600083905060008390506000612ae560048484608073ffffffffffffffffffffffffffffffffffffffff16622df6196139ff565b905080935050505092915050565b6000600a60008473ffffffffffffffffffffffffffffffffffffffff1673ffffffffffffffffffffffffffffffffffffffff16815260200190815260200160002060008373ffffffffffffffffffffffffffffffffffffffff1673ffffffffffffffffffffffffffffffffffffffff16815260200190815260200160002054905092915050565b6060612b8583613648565b612b9657612b936000612536565b92505b6000839050612ba760048285613b6c565b91505092915050565b600073ffffffffffffffffffffffffffffffffffffffff168473ffffffffffffffffffffffffffffffffffffffff1603612c225760006040517fe602df05000000000000000000000000000000000000000000000000000000008152600401612c199190614c0f565b60405180910390fd5b600073ffffffffffffffffffffffffffffffffffffffff168373ffffffffffffffffffffffffffffffffffffffff1603612c945760006040517f94280d62000000000000000000000000000000000000000000000000000000008152600401612c8b9190614c0f565b60405180910390fd5b81600160008673ffffffffffffffffffffffffffffffffffffffff1673ffffffffffffffffffffffffffffffffffffffff16815260200190815260200160002060008573ffffffffffffffffffffffffffffffffffffffff1673ffffffffffffffffffffffffffffffffffffffff168152602001908152602001600020819055508015612d81578273ffffffffffffffffffffffffffffffffffffffff168473ffffffffffffffffffffffffffffffffffffffff167f8c5be1e5ebec7d5bd14f71427d1e84f3dd0314c0f7b2291e5b200ac8c7c3b92584604051612d7891906144a4565b60405180910390a35b50505050565b600073ffffffffffffffffffffffffffffffffffffffff168373ffffffffffffffffffffffffffffffffffffffff1603612dd9578060026000828254612dcd9190614fe5565b92505081905550612eac565b60008060008573ffffffffffffffffffffffffffffffffffffffff1673ffffffffffffffffffffffffffffffffffffffff16815260200190815260200160002054905081811015612e65578381836040517fe450d38c000000000000000000000000000000000000000000000000000000008152600401612e5c93929190614eb8565b60405180910390fd5b8181036000808673ffffffffffffffffffffffffffffffffffffffff1673ffffffffffffffffffffffffffffffffffffffff16815260200190815260200160002081905550505b600073ffffffffffffffffffffffffffffffffffffffff168273ffffffffffffffffffffffffffffffffffffffff1603612ef55780600260008282540392505081905550612f42565b806000808473ffffffffffffffffffffffffffffffffffffffff1673ffffffffffffffffffffffffffffffffffffffff168152602001908152602001600020600082825401925050819055505b8173ffffffffffffffffffffffffffffffffffffffff168373ffffffffffffffffffffffffffffffffffffffff167fddf252ad1be2c89b69c2b068fc378daa952ba7f163c4a11628f55a4df523b3ef83604051612f9f91906144a4565b60405180910390a3505050565b612fb68282611006565b612ff95780826040517fe2517d3f000000000000000000000000000000000000000000000000000000008152600401612ff0929190615019565b60405180910390fd5b5050565b600061300a826004613c22565b9050919050565b60007f000000000000000000000000000000000000000000000000000000000000000073ffffffffffffffffffffffffffffffffffffffff163073ffffffffffffffffffffffffffffffffffffffff1614801561308d57507f000000000000000000000000000000000000000000000000000000000000000046145b156130ba577f000000000000000000000000000000000000000000000000000000000000000090506130c5565b6130c2613cbc565b90505b90565b60006040517f190100000000000000000000000000000000000000000000000000000000000081528360028201528260228201526042812091505092915050565b6000806000604184510361314e5760008060006020870151925060408701519150606087015160001a905061314088828585613d52565b95509550955050505061315e565b60006002855160001b9250925092505b9250925092565b6000600381111561317957613178615042565b5b82600381111561318c5761318b615042565b5b03156132c557600160038111156131a6576131a5615042565b5b8260038111156131b9576131b8615042565b5b036131f0576040517ff645eedf00000000000000000000000000000000000000000000000000000000815260040160405180910390fd5b6002600381111561320457613203615042565b5b82600381111561321757613216615042565b5b0361325c578060001c6040517ffce698f700000000000000000000000000000000000000000000000000000000815260040161325391906144a4565b60405180910390fd5b60038081111561326f5761326e615042565b5b82600381111561328257613281615042565b5b036132c457806040517fd78bce0c0000000000000000000000000000000000000000000000000000000081526004016132bb9190614584565b60405180910390fd5b5b5050565b606060006040518060400160405280601081526020017f3031323334353637383961626364656600000000000000000000000000000000815250905060008360601b90506000602a67ffffffffffffffff81111561332a576133296146f1565b5b6040519080825280601f01601f19166020018201604052801561335c5781602001600182028036833780820191505090505b5090507f30000000000000000000000000000000000000000000000000000000000000008160008151811061339457613393615071565b5b60200101907effffffffffffffffffffffffffffffffffffffffffffffffffffffffffffff1916908160001a9053507f7800000000000000000000000000000000000000000000000000000000000000816001815181106133f8576133f7615071565b5b60200101907effffffffffffffffffffffffffffffffffffffffffffffffffffffffffffff1916908160001a90535060005b601481101561359a5783600484836014811061344957613448615071565b5b1a60f81b7effffffffffffffffffffffffffffffffffffffffffffffffffffffffffffff1916901c60f81c60ff168151811061348857613487615071565b5b602001015160f81c60f81b826002836134a191906150a0565b60026134ad9190614fe5565b815181106134be576134bd615071565b5b60200101907effffffffffffffffffffffffffffffffffffffffffffffffffffffffffffff1916908160001a90535083600f60f81b84836014811061350657613505615071565b5b1a60f81b1660f81c60ff168151811061352257613521615071565b5b602001015160f81c60f81b8260028361353b91906150a0565b60036135479190614fe5565b8151811061355857613557615071565b5b60200101907effffffffffffffffffffffffffffffffffffffffffffffffffffffffffffff1916908160001a9053508080613592906150e2565b91505061342a565b50809350505050919050565b60006040518060400160405280600481526020017f70303a2000000000000000000000000000000000000000000000000000000000815250836040518060400160405280600581526020017f2070313a20000000000000000000000000000000000000000000000000000000815250846040516020016136299493929190615166565b604051602081830303815290604052905061364381613e46565b505050565b6000808214159050919050565b6060602067ffffffffffffffff811115613672576136716146f1565b5b6040519080825280601f01601f1916602001820160405280156136a45781602001600182028036833780820191505090505b509050816020820152919050565b6000819050919050565b60606136c782613eb3565b9050919050565b60006136d983613648565b6136ea576136e76000612536565b92505b6136f382613648565b613704576137016000612536565b91505b60008390506000839050600061373960048484608073ffffffffffffffffffffffffffffffffffffffff16635211c6796139ff565b905080935050505092915050565b600061375283613648565b613763576137606000612536565b92505b61376c82613648565b61377d5761377a6000612536565b91505b6000839050600083905060006137b260048484608073ffffffffffffffffffffffffffffffffffffffff1663eb274b776139ff565b905080935050505092915050565b60006137cb82613a93565b6137dc576137d96000613aa0565b91505b600082905060006137ec82613655565b90506000608073ffffffffffffffffffffffffffffffffffffffff166373cc0154600d846040518363ffffffff1660e01b815260040161382d929190614f44565b602060405180830381865afa15801561384a573d6000803e3d6000fd5b505050506040513d601f19601f8201168201806040525081019061386e9190614f89565b905061387981613f81565b9350505050919050565b6138958261389083613f8d565b6135a6565b5050565b606060ff60001b83146138b6576138af8361400d565b9050613943565b8180546138c290614d94565b80601f01602080910402602001604051908101604052809291908181526020018280546138ee90614d94565b801561393b5780601f106139105761010080835404028352916020019161393b565b820191906000526020600020905b81548152906001019060200180831161391e57829003601f168201915b505050505090505b92915050565b6000613955838361254a565b905092915050565b60006060608073ffffffffffffffffffffffffffffffffffffffff166319e1c5c461398786613655565b856040518363ffffffff1660e01b81526004016139a59291906151a4565b600060405180830381865afa1580156139c2573d6000803e3d6000fd5b505050506040513d6000823e3d601f19601f820116820180604052508101906139eb9190615244565b90506139f681614081565b91505092915050565b60006060838388613a0f89613655565b613a1889613655565b6040518463ffffffff1660e01b8152600401613a369392919061528d565b600060405180830381865afa158015613a53573d6000803e3d6000fd5b505050506040513d6000823e3d601f19601f82011682018060405250810190613a7c9190615244565b9050613a878161408f565b91505095945050505050565b6000808214159050919050565b6000613aad82600d61395d565b9050919050565b60006060608073ffffffffffffffffffffffffffffffffffffffff1663c2d9695287613adf88613655565b613ae888613655565b613af188613655565b6040518563ffffffff1660e01b8152600401613b1094939291906152d2565b600060405180830381865afa158015613b2d573d6000803e3d6000fd5b505050506040513d6000823e3d601f19601f82011682018060405250810190613b569190615244565b9050613b6181614081565b915050949350505050565b6060608073ffffffffffffffffffffffffffffffffffffffff1663a1848ff385613b9586613655565b85604051602001613ba6919061534d565b6040516020818303038152906040526040518463ffffffff1660e01b8152600401613bd39392919061528d565b600060405180830381865afa158015613bf0573d6000803e3d6000fd5b505050506040513d6000823e3d601f19601f82011682018060405250810190613c199190615409565b90509392505050565b60006060608073ffffffffffffffffffffffffffffffffffffffff16635fa55ca784866040518363ffffffff1660e01b8152600401613c62929190614f44565b600060405180830381865afa158015613c7f573d6000803e3d6000fd5b505050506040513d6000823e3d601f19601f82011682018060405250810190613ca89190615244565b9050613cb381614081565b91505092915050565b60007f8b73c3c69bb8fe3d512ecc4cf759cc79239f7b179b0ffacaa9a75d522b39400f7f00000000000000000000000000000000000000000000000000000000000000007f00000000000000000000000000000000000000000000000000000000000000004630604051602001613d37959493929190615452565b60405160208183030381529060405280519060200120905090565b60008060007f7fffffffffffffffffffffffffffffff5d576e7357a4501ddfe92f46681b20a08460001c1115613d92576000600385925092509250613e3c565b600060018888888860405160008152602001604052604051613db794939291906154a5565b6020604051602081039080840390855afa158015613dd9573d6000803e3d6000fd5b505050602060405103519050600073ffffffffffffffffffffffffffffffffffffffff168173ffffffffffffffffffffffffffffffffffffffff1603613e2d57600060016000801b93509350935050613e3c565b8060008060001b935093509350505b9450945094915050565b608073ffffffffffffffffffffffffffffffffffffffff166341304fac826040518263ffffffff1660e01b8152600401613e80919061439f565b60006040518083038186803b158015613e9857600080fd5b505afa158015613eac573d6000803e3d6000fd5b5050505050565b606060006001613ec28461409d565b01905060008167ffffffffffffffff811115613ee157613ee06146f1565b5b6040519080825280601f01601f191660200182016040528015613f135781602001600182028036833780820191505090505b509050600082602001820190505b600115613f76578080600190039150507f3031323334353637383961626364656600000000000000000000000000000000600a86061a8153600a8581613f6a57613f696154ea565b5b04945060008503613f21575b819350505050919050565b60008082119050919050565b606081613fcf576040518060400160405280600581526020017f66616c7365000000000000000000000000000000000000000000000000000000815250614006565b6040518060400160405280600481526020017f74727565000000000000000000000000000000000000000000000000000000008152505b9050919050565b6060600061401a836141f0565b90506000602067ffffffffffffffff811115614039576140386146f1565b5b6040519080825280601f01601f19166020018201604052801561406b5781602001600182028036833780820191505090505b5090508181528360208201528092505050919050565b600060208201519050919050565b600060208201519050919050565b600080600090507a184f03e93ff9f4daa797ed6e38ed64bf6a1f01000000000000000083106140fb577a184f03e93ff9f4daa797ed6e38ed64bf6a1f01000000000000000083816140f1576140f06154ea565b5b0492506040810190505b6d04ee2d6d415b85acef81000000008310614138576d04ee2d6d415b85acef8100000000838161412e5761412d6154ea565b5b0492506020810190505b662386f26fc10000831061416757662386f26fc10000838161415d5761415c6154ea565b5b0492506010810190505b6305f5e1008310614190576305f5e1008381614186576141856154ea565b5b0492506008810190505b61271083106141b55761271083816141ab576141aa6154ea565b5b0492506004810190505b606483106141d857606483816141ce576141cd6154ea565b5b0492506002810190505b600a83106141e7576001810190505b80915050919050565b60008060ff8360001c169050601f811115614237576040517fb3512b0c00000000000000000000000000000000000000000000000000000000815260040160405180910390fd5b80915050919050565b6000604051905090565b600080fd5b600080fd5b60007fffffffff0000000000000000000000000000000000000000000000000000000082169050919050565b61428981614254565b811461429457600080fd5b50565b6000813590506142a681614280565b92915050565b6000602082840312156142c2576142c161424a565b5b60006142d084828501614297565b91505092915050565b60008115159050919050565b6142ee816142d9565b82525050565b600060208201905061430960008301846142e5565b92915050565b600081519050919050565b600082825260208201905092915050565b60005b8381101561434957808201518184015260208101905061432e565b60008484015250505050565b6000601f19601f8301169050919050565b60006143718261430f565b61437b818561431a565b935061438b81856020860161432b565b61439481614355565b840191505092915050565b600060208201905081810360008301526143b98184614366565b905092915050565b600073ffffffffffffffffffffffffffffffffffffffff82169050919050565b60006143ec826143c1565b9050919050565b6143fc816143e1565b811461440757600080fd5b50565b600081359050614419816143f3565b92915050565b6000819050919050565b6144328161441f565b811461443d57600080fd5b50565b60008135905061444f81614429565b92915050565b6000806040838503121561446c5761446b61424a565b5b600061447a8582860161440a565b925050602061448b85828601614440565b9150509250929050565b61449e8161441f565b82525050565b60006020820190506144b96000830184614495565b92915050565b6000806000606084860312156144d8576144d761424a565b5b60006144e68682870161440a565b93505060206144f78682870161440a565b925050604061450886828701614440565b9150509250925092565b6000819050919050565b61452581614512565b811461453057600080fd5b50565b6000813590506145428161451c565b92915050565b60006020828403121561455e5761455d61424a565b5b600061456c84828501614533565b91505092915050565b61457e81614512565b82525050565b60006020820190506145996000830184614575565b92915050565b600080604083850312156145b6576145b561424a565b5b60006145c485828601614533565b92505060206145d58582860161440a565b9150509250929050565b600060ff82169050919050565b6145f5816145df565b82525050565b600060208201905061461060008301846145ec565b92915050565b600080fd5b60006020828403121561463157614630614616565b5b81905092915050565b600080604083850312156146515761465061424a565b5b600061465f8582860161440a565b925050602083013567ffffffffffffffff8111156146805761467f61424f565b5b61468c8582860161461b565b9150509250929050565b6000819050919050565b60006146bb6146b66146b18461441f565b614696565b61441f565b9050919050565b6146cb816146a0565b82525050565b60006020820190506146e660008301846146c2565b92915050565b600080fd5b7f4e487b7100000000000000000000000000000000000000000000000000000000600052604160045260246000fd5b61472982614355565b810181811067ffffffffffffffff82111715614748576147476146f1565b5b80604052505050565b600061475b614240565b90506147678282614720565b919050565b600080fd5b600080fd5b600080fd5b600067ffffffffffffffff821115614796576147956146f1565b5b61479f82614355565b9050602081019050919050565b82818337600083830152505050565b60006147ce6147c98461477b565b614751565b9050828152602081018484840111156147ea576147e9614776565b5b6147f58482856147ac565b509392505050565b600082601f83011261481257614811614771565b5b81356148228482602086016147bb565b91505092915050565b600060408284031215614841576148406146ec565b5b61484b6040614751565b9050600061485b84828501614533565b600083015250602082013567ffffffffffffffff81111561487f5761487e61476c565b5b61488b848285016147fd565b60208301525092915050565b600080604083850312156148ae576148ad61424a565b5b60006148bc8582860161440a565b925050602083013567ffffffffffffffff8111156148dd576148dc61424f565b5b6148e98582860161482b565b9150509250929050565b6000602082840312156149095761490861424a565b5b60006149178482850161440a565b91505092915050565b6149298161441f565b811461493457600080fd5b50565b60008135905061494681614920565b92915050565b6000806000606084860312156149655761496461424a565b5b60006149738682870161440a565b93505060206149848682870161440a565b925050604061499586828701614937565b9150509250925092565b60007fff0000000000000000000000000000000000000000000000000000000000000082169050919050565b6149d48161499f565b82525050565b6149e3816143e1565b82525050565b600081519050919050565b600082825260208201905092915050565b6000819050602082019050919050565b614a1e8161441f565b82525050565b6000614a308383614a15565b60208301905092915050565b6000602082019050919050565b6000614a54826149e9565b614a5e81856149f4565b9350614a6983614a05565b8060005b83811015614a9a578151614a818882614a24565b9750614a8c83614a3c565b925050600181019050614a6d565b5085935050505092915050565b600060e082019050614abc600083018a6149cb565b8181036020830152614ace8189614366565b90508181036040830152614ae28188614366565b9050614af16060830187614495565b614afe60808301866149da565b614b0b60a0830185614575565b81810360c0830152614b1d8184614a49565b905098975050505050505050565b60006fffffffffffffffffffffffffffffffff82169050919050565b614b5081614b2b565b8114614b5b57600080fd5b50565b600081359050614b6d81614b47565b92915050565b600060208284031215614b8957614b8861424a565b5b6000614b9784828501614b5e565b91505092915050565b600080600060608486031215614bb957614bb861424a565b5b6000614bc78682870161440a565b9350506020614bd88682870161440a565b925050604084013567ffffffffffffffff811115614bf957614bf861424f565b5b614c058682870161461b565b9150509250925092565b6000602082019050614c2460008301846149da565b92915050565b600060208284031215614c4057614c3f61424a565b5b6000614c4e84828501614440565b91505092915050565b60008060408385031215614c6e57614c6d61424a565b5b6000614c7c8582860161440a565b9250506020614c8d85828601614937565b9150509250929050565b60008060408385031215614cae57614cad61424a565b5b6000614cbc8582860161440a565b9250506020614ccd8582860161440a565b9150509250929050565b600060408284031215614ced57614cec614616565b5b81905092915050565b600080600060608486031215614d0f57614d0e61424a565b5b6000614d1d8682870161440a565b9350506020614d2e8682870161440a565b925050604084013567ffffffffffffffff811115614d4f57614d4e61424f565b5b614d5b86828701614cd7565b9150509250925092565b7f4e487b7100000000000000000000000000000000000000000000000000000000600052602260045260246000fd5b60006002820490506001821680614dac57607f821691505b602082108103614dbf57614dbe614d65565b5b50919050565b600060208284031215614ddb57614dda6146ec565b5b614de56020614751565b9050600082013567ffffffffffffffff811115614e0557614e0461476c565b5b614e11848285016147fd565b60008301525092915050565b6000614e293683614dc5565b9050919050565b6000604082019050614e456000830185614575565b614e526020830184614575565b9392505050565b6000614e74614e6f614e6a84614b2b565b614696565b61441f565b9050919050565b614e8481614e59565b82525050565b6000602082019050614e9f6000830184614e7b565b92915050565b6000614eb1368361482b565b9050919050565b6000606082019050614ecd60008301866149da565b614eda6020830185614495565b614ee76040830184614495565b949350505050565b600081519050919050565b600082825260208201905092915050565b6000614f1682614eef565b614f208185614efa565b9350614f3081856020860161432b565b614f3981614355565b840191505092915050565b6000604082019050614f5960008301856145ec565b8181036020830152614f6b8184614f0b565b90509392505050565b600081519050614f8381614429565b92915050565b600060208284031215614f9f57614f9e61424a565b5b6000614fad84828501614f74565b91505092915050565b7f4e487b7100000000000000000000000000000000000000000000000000000000600052601160045260246000fd5b6000614ff08261441f565b9150614ffb8361441f565b925082820190508082111561501357615012614fb6565b5b92915050565b600060408201905061502e60008301856149da565b61503b6020830184614575565b9392505050565b7f4e487b7100000000000000000000000000000000000000000000000000000000600052602160045260246000fd5b7f4e487b7100000000000000000000000000000000000000000000000000000000600052603260045260246000fd5b60006150ab8261441f565b91506150b68361441f565b92508282026150c48161441f565b915082820484148315176150db576150da614fb6565b5b5092915050565b60006150ed8261441f565b91507fffffffffffffffffffffffffffffffffffffffffffffffffffffffffffffffff820361511f5761511e614fb6565b5b600182019050919050565b600081905092915050565b60006151408261430f565b61514a818561512a565b935061515a81856020860161432b565b80840191505092915050565b60006151728287615135565b915061517e8286615135565b915061518a8285615135565b91506151968284615135565b915081905095945050505050565b600060408201905081810360008301526151be8185614f0b565b90506151cd60208301846145ec565b9392505050565b60006151e76151e28461477b565b614751565b90508281526020810184848401111561520357615202614776565b5b61520e84828561432b565b509392505050565b600082601f83011261522b5761522a614771565b5b815161523b8482602086016151d4565b91505092915050565b60006020828403121561525a5761525961424a565b5b600082015167ffffffffffffffff8111156152785761527761424f565b5b61528484828501615216565b91505092915050565b60006060820190506152a260008301866145ec565b81810360208301526152b48185614f0b565b905081810360408301526152c88184614f0b565b9050949350505050565b60006080820190506152e760008301876145ec565b81810360208301526152f98186614f0b565b9050818103604083015261530d8185614f0b565b905081810360608301526153218184614f0b565b905095945050505050565b6000819050919050565b61534761534282614512565b61532c565b82525050565b60006153598284615336565b60208201915081905092915050565b600067ffffffffffffffff821115615383576153826146f1565b5b61538c82614355565b9050602081019050919050565b60006153ac6153a784615368565b614751565b9050828152602081018484840111156153c8576153c7614776565b5b6153d384828561432b565b509392505050565b600082601f8301126153f0576153ef614771565b5b8151615400848260208601615399565b91505092915050565b60006020828403121561541f5761541e61424a565b5b600082015167ffffffffffffffff81111561543d5761543c61424f565b5b615449848285016153db565b91505092915050565b600060a0820190506154676000830188614575565b6154746020830187614575565b6154816040830186614575565b61548e6060830185614495565b61549b60808301846149da565b9695505050505050565b60006080820190506154ba6000830187614575565b6154c760208301866145ec565b6154d46040830185614575565b6154e16060830184614575565b95945050505050565b7f4e487b7100000000000000000000000000000000000000000000000000000000600052601260045260246000fdfe5b5f7472616e7366657246726f6d456e637279707465645d205472616e7366657272696e672066726f6d3a205b5f7370656e64416c6c6f77616e63655d2043757272656e7420616c6c6f77616e63653a205b5f7472616e73666572496d706c5d20456e637279707465642062616c616e6365206f662066726f6d3a205b5f7472616e73666572496d706c5d205472616e7366657272696e672066726f6d3a20a26469706673582212203303315d443648ba3da3fe8aff0f0a05b10129546a79c98934eb4a9712564fdd64736f6c63430008140033",
  "devdoc": {
    "errors": {
      "AccessControlBadConfirmation()": [
        {
          "details": "The caller of a function is not the expected one. NOTE: Don't confuse with {AccessControlUnauthorizedAccount}."
        }
      ],
      "AccessControlUnauthorizedAccount(address,bytes32)": [
        {
          "details": "The `account` is missing a role."
        }
      ],
      "ECDSAInvalidSignature()": [
        {
          "details": "The signature derives the `address(0)`."
        }
      ],
      "ECDSAInvalidSignatureLength(uint256)": [
        {
          "details": "The signature has an invalid length."
        }
      ],
      "ECDSAInvalidSignatureS(bytes32)": [
        {
          "details": "The signature has an S value that is in the upper half order."
        }
      ],
      "ERC20InsufficientAllowance(address,uint256,uint256)": [
        {
          "details": "Indicates a failure with the `spender`s `allowance`. Used in transfers.",
          "params": {
            "allowance": "Amount of tokens a `spender` is allowed to operate with.",
            "needed": "Minimum amount required to perform a transfer.",
            "spender": "Address that may be allowed to operate on tokens without being their owner."
          }
        }
      ],
      "ERC20InsufficientBalance(address,uint256,uint256)": [
        {
          "details": "Indicates an error related to the current `balance` of a `sender`. Used in transfers.",
          "params": {
            "balance": "Current balance for the interacting account.",
            "needed": "Minimum amount required to perform a transfer.",
            "sender": "Address whose tokens are being transferred."
          }
        }
      ],
      "ERC20InvalidApprover(address)": [
        {
          "details": "Indicates a failure with the `approver` of a token to be approved. Used in approvals.",
          "params": {
            "approver": "Address initiating an approval operation."
          }
        }
      ],
      "ERC20InvalidReceiver(address)": [
        {
          "details": "Indicates a failure with the token `receiver`. Used in transfers.",
          "params": {
            "receiver": "Address to which tokens are being transferred."
          }
        }
      ],
      "ERC20InvalidSender(address)": [
        {
          "details": "Indicates a failure with the token `sender`. Used in transfers.",
          "params": {
            "sender": "Address whose tokens are being transferred."
          }
        }
      ],
      "ERC20InvalidSpender(address)": [
        {
          "details": "Indicates a failure with the `spender` to be approved. Used in approvals.",
          "params": {
            "spender": "Address that may be allowed to operate on tokens without being their owner."
          }
        }
      ],
      "OwnableInvalidOwner(address)": [
        {
          "details": "The owner is not a valid owner account. (eg. `address(0)`)"
        }
      ],
      "OwnableUnauthorizedAccount(address)": [
        {
          "details": "The caller account is not authorized to perform an operation."
        }
      ]
    },
    "events": {
      "Approval(address,address,uint256)": {
        "details": "Emitted when the allowance of a `spender` for an `owner` is set by a call to {approve}. `value` is the new allowance."
      },
      "ApprovalEncrypted(address,address)": {
        "details": "Emitted when the allowance of a `spender` for an `owner` is set by a call to {approveEncrypted}. `value` is the new allowance."
      },
      "EIP712DomainChanged()": {
        "details": "MAY be emitted to signal that the domain could have changed."
      },
      "RoleAdminChanged(bytes32,bytes32,bytes32)": {
        "details": "Emitted when `newAdminRole` is set as ``role``'s admin role, replacing `previousAdminRole` `DEFAULT_ADMIN_ROLE` is the starting admin for all roles, despite {RoleAdminChanged} not being emitted signaling this."
      },
      "RoleGranted(bytes32,address,address)": {
        "details": "Emitted when `account` is granted `role`. `sender` is the account that originated the contract call, an admin role bearer except when using {AccessControl-_setupRole}."
      },
      "RoleRevoked(bytes32,address,address)": {
        "details": "Emitted when `account` is revoked `role`. `sender` is the account that originated the contract call:   - if using `revokeRole`, it is the admin role bearer   - if using `renounceRole`, it is the role bearer (i.e. `account`)"
      },
      "Transfer(address,address,uint256)": {
        "details": "Emitted when `value` tokens are moved from one account (`from`) to another (`to`). Note that `value` may be zero."
      },
      "TransferEncrypted(address,address)": {
        "details": "Emitted when `value` tokens are moved from one account (`from`) to another (`to`). Note that `value` may be zero."
      }
    },
    "kind": "dev",
    "methods": {
      "_transferFromEncrypted(address,address,uint256)": {
        "details": "Moves a `value` amount of tokens from `from` to `to` using the allowance mechanism. `value` is then deducted from the caller's allowance. Accepts the value as inEuint128, more convenient for calls from other contracts. Returns a boolean value indicating whether the operation succeeded. Emits a {TransferEncrypted} event."
      },
      "allowance(address,address)": {
        "details": "See {IERC20-allowance}."
      },
      "allowanceEncrypted(address,address,(bytes32,bytes))": {
        "details": "Returns the remaining number of tokens that `spender` will be allowed to spend on behalf of `owner` through {transferFrom}. This is zero by default. This value changes when {approve} or {transferFrom} are called."
      },
      "approve(address,uint256)": {
        "details": "See {IERC20-approve}. NOTE: If `value` is the maximum `uint256`, the allowance is not updated on `transferFrom`. This is semantically equivalent to an infinite approval. Requirements: - `spender` cannot be the zero address."
      },
      "approveEncrypted(address,(bytes))": {
        "details": "Sets a `value` amount of tokens as the allowance of `spender` over the caller's tokens. Returns a boolean value indicating whether the operation succeeded. IMPORTANT: Beware that changing an allowance with this method brings the risk that someone may use both the old and the new allowance by unfortunate transaction ordering. One possible solution to mitigate this race condition is to first reduce the spender's allowance to 0 and set the desired value afterwards: https://github.com/ethereum/EIPs/issues/20#issuecomment-263524729 Emits an {ApprovalEncrypted} event."
      },
      "balanceOf(address)": {
        "details": "See {IERC20-balanceOf}."
      },
      "balanceOfEncrypted(address,(bytes32,bytes))": {
        "details": "Returns the value of tokens owned by `account`, sealed and encrypted for the caller."
      },
      "decimals()": {
        "details": "Returns the number of decimals used to get its user representation. For example, if `decimals` equals `2`, a balance of `505` tokens should be displayed to a user as `5.05` (`505 / 10 ** 2`). Tokens usually opt for a value of 18, imitating the relationship between Ether and Wei. This is the default value returned by this function, unless it's overridden. NOTE: This information is only used for _display_ purposes: it in no way affects any of the arithmetic of the contract, including {IERC20-balanceOf} and {IERC20-transfer}."
      },
      "eip712Domain()": {
        "details": "See {IERC-5267}."
      },
      "getRoleAdmin(bytes32)": {
        "details": "Returns the admin role that controls `role`. See {grantRole} and {revokeRole}. To change a role's admin, use {_setRoleAdmin}."
      },
      "grantRole(bytes32,address)": {
        "details": "Grants `role` to `account`. If `account` had not been already granted `role`, emits a {RoleGranted} event. Requirements: - the caller must have ``role``'s admin role. May emit a {RoleGranted} event."
      },
      "hasRole(bytes32,address)": {
        "details": "Returns `true` if `account` has been granted `role`."
      },
      "name()": {
        "details": "Returns the name of the token."
      },
      "owner()": {
        "details": "Returns the address of the current owner."
      },
      "renounceOwnership()": {
        "details": "Leaves the contract without owner. It will not be possible to call `onlyOwner` functions. Can only be called by the current owner. NOTE: Renouncing ownership will leave the contract without an owner, thereby disabling any functionality that is only available to the owner."
      },
      "renounceRole(bytes32,address)": {
        "details": "Revokes `role` from the calling account. Roles are often managed via {grantRole} and {revokeRole}: this function's purpose is to provide a mechanism for accounts to lose their privileges if they are compromised (such as when a trusted device is misplaced). If the calling account had been revoked `role`, emits a {RoleRevoked} event. Requirements: - the caller must be `callerConfirmation`. May emit a {RoleRevoked} event."
      },
      "revokeRole(bytes32,address)": {
        "details": "Revokes `role` from `account`. If `account` had been granted `role`, emits a {RoleRevoked} event. Requirements: - the caller must have ``role``'s admin role. May emit a {RoleRevoked} event."
      },
      "supportsInterface(bytes4)": {
        "details": "See {IERC165-supportsInterface}."
      },
      "symbol()": {
        "details": "Returns the symbol of the token, usually a shorter version of the name."
      },
      "totalSupply()": {
        "details": "See {IERC20-totalSupply}."
      },
      "transfer(address,uint256)": {
        "details": "See {IERC20-transfer}. Requirements: - `to` cannot be the zero address. - the caller must have a balance of at least `value`."
      },
      "transferFrom(address,address,uint256)": {
        "details": "See {IERC20-transferFrom}. Emits an {Approval} event indicating the updated allowance. This is not required by the EIP. See the note at the beginning of {ERC20}. NOTE: Does not update the allowance if the current allowance is the maximum `uint256`. Requirements: - `from` and `to` cannot be the zero address. - `from` must have a balance of at least `value`. - the caller must have allowance for ``from``'s tokens of at least `value`."
      },
      "transferFromEncrypted(address,address,(bytes))": {
        "details": "Moves a `value` amount of tokens from `from` to `to` using the allowance mechanism. `value` is then deducted from the caller's allowance. Accepts the value as inEuint128, more convenient for calls from EOAs. Returns a boolean value indicating whether the operation succeeded. Emits a {TransferEncrypted} event."
      },
      "transferOwnership(address)": {
        "details": "Transfers ownership of the contract to a new account (`newOwner`). Can only be called by the current owner."
      }
    },
    "version": 1
  },
  "userdoc": {
    "errors": {
      "SignerNotMessageSender()": [
        {
          "notice": "Emitted when the signer is not the message sender"
        }
      ],
      "SignerNotOwner()": [
        {
          "notice": "Emitted when the signer is not the specified owner"
        }
      ]
    },
    "kind": "user",
    "methods": {},
    "version": 1
  },
  "storageLayout": {
    "storage": [
      {
        "astId": 19658,
        "contract": "contracts/FHERC20/FhunderToken.sol:FhunderToken",
        "label": "_balances",
        "offset": 0,
        "slot": "0",
        "type": "t_mapping(t_address,t_uint256)"
      },
      {
        "astId": 19664,
        "contract": "contracts/FHERC20/FhunderToken.sol:FhunderToken",
        "label": "_allowances",
        "offset": 0,
        "slot": "1",
        "type": "t_mapping(t_address,t_mapping(t_address,t_uint256))"
      },
      {
        "astId": 19666,
        "contract": "contracts/FHERC20/FhunderToken.sol:FhunderToken",
        "label": "_totalSupply",
        "offset": 0,
        "slot": "2",
        "type": "t_uint256"
      },
      {
        "astId": 19668,
        "contract": "contracts/FHERC20/FhunderToken.sol:FhunderToken",
        "label": "_name",
        "offset": 0,
        "slot": "3",
        "type": "t_string_storage"
      },
      {
        "astId": 19670,
        "contract": "contracts/FHERC20/FhunderToken.sol:FhunderToken",
        "label": "_symbol",
        "offset": 0,
        "slot": "4",
        "type": "t_string_storage"
      },
      {
        "astId": 22549,
        "contract": "contracts/FHERC20/FhunderToken.sol:FhunderToken",
        "label": "_nameFallback",
        "offset": 0,
        "slot": "5",
        "type": "t_string_storage"
      },
      {
        "astId": 22551,
        "contract": "contracts/FHERC20/FhunderToken.sol:FhunderToken",
        "label": "_versionFallback",
        "offset": 0,
        "slot": "6",
        "type": "t_string_storage"
      },
      {
        "astId": 19302,
        "contract": "contracts/FHERC20/FhunderToken.sol:FhunderToken",
        "label": "_owner",
        "offset": 0,
        "slot": "7",
        "type": "t_address"
      },
      {
        "astId": 18941,
        "contract": "contracts/FHERC20/FhunderToken.sol:FhunderToken",
        "label": "_roles",
        "offset": 0,
        "slot": "8",
        "type": "t_mapping(t_bytes32,t_struct(RoleData)18936_storage)"
      },
      {
        "astId": 24853,
        "contract": "contracts/FHERC20/FhunderToken.sol:FhunderToken",
        "label": "_encBalances",
        "offset": 0,
        "slot": "9",
        "type": "t_mapping(t_address,t_userDefinedValueType(euint128)16)"
      },
      {
        "astId": 24860,
        "contract": "contracts/FHERC20/FhunderToken.sol:FhunderToken",
        "label": "_allowed",
        "offset": 0,
        "slot": "10",
        "type": "t_mapping(t_address,t_mapping(t_address,t_userDefinedValueType(euint128)16))"
      },
      {
        "astId": 24867,
        "contract": "contracts/FHERC20/FhunderToken.sol:FhunderToken",
        "label": "totalEncryptedSupply",
        "offset": 0,
        "slot": "11",
        "type": "t_userDefinedValueType(euint128)16"
      },
      {
        "astId": 24869,
        "contract": "contracts/FHERC20/FhunderToken.sol:FhunderToken",
        "label": "_customDecimals",
        "offset": 0,
        "slot": "12",
        "type": "t_uint8"
      }
    ],
    "types": {
      "t_address": {
        "encoding": "inplace",
        "label": "address",
        "numberOfBytes": "20"
      },
      "t_bool": {
        "encoding": "inplace",
        "label": "bool",
        "numberOfBytes": "1"
      },
      "t_bytes32": {
        "encoding": "inplace",
        "label": "bytes32",
        "numberOfBytes": "32"
      },
      "t_mapping(t_address,t_bool)": {
        "encoding": "mapping",
        "key": "t_address",
        "label": "mapping(address => bool)",
        "numberOfBytes": "32",
        "value": "t_bool"
      },
      "t_mapping(t_address,t_mapping(t_address,t_uint256))": {
        "encoding": "mapping",
        "key": "t_address",
        "label": "mapping(address => mapping(address => uint256))",
        "numberOfBytes": "32",
        "value": "t_mapping(t_address,t_uint256)"
      },
      "t_mapping(t_address,t_mapping(t_address,t_userDefinedValueType(euint128)16))": {
        "encoding": "mapping",
        "key": "t_address",
        "label": "mapping(address => mapping(address => euint128))",
        "numberOfBytes": "32",
        "value": "t_mapping(t_address,t_userDefinedValueType(euint128)16)"
      },
      "t_mapping(t_address,t_uint256)": {
        "encoding": "mapping",
        "key": "t_address",
        "label": "mapping(address => uint256)",
        "numberOfBytes": "32",
        "value": "t_uint256"
      },
      "t_mapping(t_address,t_userDefinedValueType(euint128)16)": {
        "encoding": "mapping",
        "key": "t_address",
        "label": "mapping(address => euint128)",
        "numberOfBytes": "32",
        "value": "t_userDefinedValueType(euint128)16"
      },
      "t_mapping(t_bytes32,t_struct(RoleData)18936_storage)": {
        "encoding": "mapping",
        "key": "t_bytes32",
        "label": "mapping(bytes32 => struct AccessControl.RoleData)",
        "numberOfBytes": "32",
        "value": "t_struct(RoleData)18936_storage"
      },
      "t_string_storage": {
        "encoding": "bytes",
        "label": "string",
        "numberOfBytes": "32"
      },
      "t_struct(RoleData)18936_storage": {
        "encoding": "inplace",
        "label": "struct AccessControl.RoleData",
        "members": [
          {
            "astId": 18933,
            "contract": "contracts/FHERC20/FhunderToken.sol:FhunderToken",
            "label": "hasRole",
            "offset": 0,
            "slot": "0",
            "type": "t_mapping(t_address,t_bool)"
          },
          {
            "astId": 18935,
            "contract": "contracts/FHERC20/FhunderToken.sol:FhunderToken",
            "label": "adminRole",
            "offset": 0,
            "slot": "1",
            "type": "t_bytes32"
          }
        ],
        "numberOfBytes": "64"
      },
      "t_uint256": {
        "encoding": "inplace",
        "label": "uint256",
        "numberOfBytes": "32"
      },
      "t_uint8": {
        "encoding": "inplace",
        "label": "uint8",
        "numberOfBytes": "1"
      },
      "t_userDefinedValueType(euint128)16": {
        "encoding": "inplace",
        "label": "euint128",
        "numberOfBytes": "32"
      }
    }
  }
}