{
  "address": "0xB170fC5BAC4a87A63fC84653Ee7e0db65CC62f96",
  "abi": [
    {
      "inputs": [],
      "stateMutability": "nonpayable",
      "type": "constructor"
    },
    {
      "inputs": [
        {
          "internalType": "address",
          "name": "sender",
          "type": "address"
        },
        {
          "internalType": "uint256",
          "name": "tokenId",
          "type": "uint256"
        },
        {
          "internalType": "address",
          "name": "owner",
          "type": "address"
        }
      ],
      "name": "ERC721IncorrectOwner",
      "type": "error"
    },
    {
      "inputs": [
        {
          "internalType": "address",
          "name": "operator",
          "type": "address"
        },
        {
          "internalType": "uint256",
          "name": "tokenId",
          "type": "uint256"
        }
      ],
      "name": "ERC721InsufficientApproval",
      "type": "error"
    },
    {
      "inputs": [
        {
          "internalType": "address",
          "name": "approver",
          "type": "address"
        }
      ],
      "name": "ERC721InvalidApprover",
      "type": "error"
    },
    {
      "inputs": [
        {
          "internalType": "address",
          "name": "operator",
          "type": "address"
        }
      ],
      "name": "ERC721InvalidOperator",
      "type": "error"
    },
    {
      "inputs": [
        {
          "internalType": "address",
          "name": "owner",
          "type": "address"
        }
      ],
      "name": "ERC721InvalidOwner",
      "type": "error"
    },
    {
      "inputs": [
        {
          "internalType": "address",
          "name": "receiver",
          "type": "address"
        }
      ],
      "name": "ERC721InvalidReceiver",
      "type": "error"
    },
    {
      "inputs": [
        {
          "internalType": "address",
          "name": "sender",
          "type": "address"
        }
      ],
      "name": "ERC721InvalidSender",
      "type": "error"
    },
    {
      "inputs": [
        {
          "internalType": "uint256",
          "name": "tokenId",
          "type": "uint256"
        }
      ],
      "name": "ERC721NonexistentToken",
      "type": "error"
    },
    {
      "inputs": [
        {
          "internalType": "address",
          "name": "owner",
          "type": "address"
        }
      ],
      "name": "OwnableInvalidOwner",
      "type": "error"
    },
    {
      "inputs": [
        {
          "internalType": "address",
          "name": "account",
          "type": "address"
        }
      ],
      "name": "OwnableUnauthorizedAccount",
      "type": "error"
    },
    {
      "anonymous": false,
      "inputs": [
        {
          "indexed": true,
          "internalType": "address",
          "name": "owner",
          "type": "address"
        },
        {
          "indexed": true,
          "internalType": "address",
          "name": "approved",
          "type": "address"
        },
        {
          "indexed": true,
          "internalType": "uint256",
          "name": "tokenId",
          "type": "uint256"
        }
      ],
      "name": "Approval",
      "type": "event"
    },
    {
      "anonymous": false,
      "inputs": [
        {
          "indexed": true,
          "internalType": "address",
          "name": "owner",
          "type": "address"
        },
        {
          "indexed": true,
          "internalType": "address",
          "name": "operator",
          "type": "address"
        },
        {
          "indexed": false,
          "internalType": "bool",
          "name": "approved",
          "type": "bool"
        }
      ],
      "name": "ApprovalForAll",
      "type": "event"
    },
    {
      "anonymous": false,
      "inputs": [
        {
          "indexed": false,
          "internalType": "uint256",
          "name": "_fromTokenId",
          "type": "uint256"
        },
        {
          "indexed": false,
          "internalType": "uint256",
          "name": "_toTokenId",
          "type": "uint256"
        }
      ],
      "name": "BatchMetadataUpdate",
      "type": "event"
    },
    {
      "anonymous": false,
      "inputs": [
        {
          "indexed": false,
          "internalType": "uint256",
          "name": "_tokenId",
          "type": "uint256"
        }
      ],
      "name": "MetadataUpdate",
      "type": "event"
    },
    {
      "anonymous": false,
      "inputs": [
        {
          "indexed": true,
          "internalType": "uint256",
          "name": "tokenId",
          "type": "uint256"
        },
        {
          "indexed": true,
          "internalType": "address",
          "name": "recipient",
          "type": "address"
        },
        {
          "indexed": true,
          "internalType": "uint256",
          "name": "campaignId",
          "type": "uint256"
        },
        {
          "indexed": false,
          "internalType": "euint128",
          "name": "encryptedAmount",
          "type": "uint256"
        }
      ],
      "name": "NFTMinted",
      "type": "event"
    },
    {
      "anonymous": false,
      "inputs": [
        {
          "indexed": true,
          "internalType": "address",
          "name": "previousOwner",
          "type": "address"
        },
        {
          "indexed": true,
          "internalType": "address",
          "name": "newOwner",
          "type": "address"
        }
      ],
      "name": "OwnershipTransferred",
      "type": "event"
    },
    {
      "anonymous": false,
      "inputs": [
        {
          "indexed": true,
          "internalType": "address",
          "name": "from",
          "type": "address"
        },
        {
          "indexed": true,
          "internalType": "address",
          "name": "to",
          "type": "address"
        },
        {
          "indexed": true,
          "internalType": "uint256",
          "name": "tokenId",
          "type": "uint256"
        }
      ],
      "name": "Transfer",
      "type": "event"
    },
    {
      "inputs": [],
      "name": "_tokenIdCounter",
      "outputs": [
        {
          "internalType": "uint256",
          "name": "",
          "type": "uint256"
        }
      ],
      "stateMutability": "view",
      "type": "function"
    },
    {
      "inputs": [
        {
          "internalType": "address",
          "name": "to",
          "type": "address"
        },
        {
          "internalType": "uint256",
          "name": "tokenId",
          "type": "uint256"
        }
      ],
      "name": "approve",
      "outputs": [],
      "stateMutability": "nonpayable",
      "type": "function"
    },
    {
      "inputs": [
        {
          "internalType": "address",
          "name": "owner",
          "type": "address"
        }
      ],
      "name": "balanceOf",
      "outputs": [
        {
          "internalType": "uint256",
          "name": "",
          "type": "uint256"
        }
      ],
      "stateMutability": "view",
      "type": "function"
    },
    {
      "inputs": [
        {
          "internalType": "uint256",
          "name": "tokenId",
          "type": "uint256"
        }
      ],
      "name": "getApproved",
      "outputs": [
        {
          "internalType": "address",
          "name": "",
          "type": "address"
        }
      ],
      "stateMutability": "view",
      "type": "function"
    },
    {
      "inputs": [],
      "name": "getCounter",
      "outputs": [
        {
          "internalType": "uint256",
          "name": "",
          "type": "uint256"
        }
      ],
      "stateMutability": "view",
      "type": "function"
    },
    {
      "inputs": [
        {
          "internalType": "uint256",
          "name": "tokenId",
          "type": "uint256"
        }
      ],
      "name": "getEncryptedAmount",
      "outputs": [
        {
          "internalType": "euint128",
          "name": "",
          "type": "uint256"
        }
      ],
      "stateMutability": "view",
      "type": "function"
    },
    {
      "inputs": [
        {
          "internalType": "address",
          "name": "owner",
          "type": "address"
        },
        {
          "internalType": "address",
          "name": "operator",
          "type": "address"
        }
      ],
      "name": "isApprovedForAll",
      "outputs": [
        {
          "internalType": "bool",
          "name": "",
          "type": "bool"
        }
      ],
      "stateMutability": "view",
      "type": "function"
    },
    {
      "inputs": [
        {
          "internalType": "address",
          "name": "recipient",
          "type": "address"
        },
        {
          "internalType": "euint128",
          "name": "encryptedAmount",
          "type": "uint256"
        },
        {
          "internalType": "uint256",
          "name": "campaignId",
          "type": "uint256"
        },
        {
          "internalType": "string",
          "name": "tokenURICID",
          "type": "string"
        }
      ],
      "name": "mintNFT",
      "outputs": [
        {
          "internalType": "uint256",
          "name": "",
          "type": "uint256"
        }
      ],
      "stateMutability": "nonpayable",
      "type": "function"
    },
    {
      "inputs": [],
      "name": "name",
      "outputs": [
        {
          "internalType": "string",
          "name": "",
          "type": "string"
        }
      ],
      "stateMutability": "view",
      "type": "function"
    },
    {
      "inputs": [
        {
          "internalType": "uint256",
          "name": "",
          "type": "uint256"
        }
      ],
      "name": "nftData",
      "outputs": [
        {
          "internalType": "euint128",
          "name": "encryptedAmount",
          "type": "uint256"
        },
        {
          "internalType": "uint256",
          "name": "campaignId",
          "type": "uint256"
        }
      ],
      "stateMutability": "view",
      "type": "function"
    },
    {
      "inputs": [],
      "name": "owner",
      "outputs": [
        {
          "internalType": "address",
          "name": "",
          "type": "address"
        }
      ],
      "stateMutability": "view",
      "type": "function"
    },
    {
      "inputs": [
        {
          "internalType": "uint256",
          "name": "tokenId",
          "type": "uint256"
        }
      ],
      "name": "ownerOf",
      "outputs": [
        {
          "internalType": "address",
          "name": "",
          "type": "address"
        }
      ],
      "stateMutability": "view",
      "type": "function"
    },
    {
      "inputs": [],
      "name": "renounceOwnership",
      "outputs": [],
      "stateMutability": "nonpayable",
      "type": "function"
    },
    {
      "inputs": [
        {
          "internalType": "address",
          "name": "from",
          "type": "address"
        },
        {
          "internalType": "address",
          "name": "to",
          "type": "address"
        },
        {
          "internalType": "uint256",
          "name": "tokenId",
          "type": "uint256"
        }
      ],
      "name": "safeTransferFrom",
      "outputs": [],
      "stateMutability": "nonpayable",
      "type": "function"
    },
    {
      "inputs": [
        {
          "internalType": "address",
          "name": "from",
          "type": "address"
        },
        {
          "internalType": "address",
          "name": "to",
          "type": "address"
        },
        {
          "internalType": "uint256",
          "name": "tokenId",
          "type": "uint256"
        },
        {
          "internalType": "bytes",
          "name": "data",
          "type": "bytes"
        }
      ],
      "name": "safeTransferFrom",
      "outputs": [],
      "stateMutability": "nonpayable",
      "type": "function"
    },
    {
      "inputs": [
        {
          "internalType": "address",
          "name": "operator",
          "type": "address"
        },
        {
          "internalType": "bool",
          "name": "approved",
          "type": "bool"
        }
      ],
      "name": "setApprovalForAll",
      "outputs": [],
      "stateMutability": "nonpayable",
      "type": "function"
    },
    {
      "inputs": [
        {
          "internalType": "bytes4",
          "name": "interfaceId",
          "type": "bytes4"
        }
      ],
      "name": "supportsInterface",
      "outputs": [
        {
          "internalType": "bool",
          "name": "",
          "type": "bool"
        }
      ],
      "stateMutability": "view",
      "type": "function"
    },
    {
      "inputs": [],
      "name": "symbol",
      "outputs": [
        {
          "internalType": "string",
          "name": "",
          "type": "string"
        }
      ],
      "stateMutability": "view",
      "type": "function"
    },
    {
      "inputs": [
        {
          "internalType": "uint256",
          "name": "tokenId",
          "type": "uint256"
        }
      ],
      "name": "tokenURI",
      "outputs": [
        {
          "internalType": "string",
          "name": "",
          "type": "string"
        }
      ],
      "stateMutability": "view",
      "type": "function"
    },
    {
      "inputs": [
        {
          "internalType": "address",
          "name": "from",
          "type": "address"
        },
        {
          "internalType": "address",
          "name": "to",
          "type": "address"
        },
        {
          "internalType": "uint256",
          "name": "tokenId",
          "type": "uint256"
        }
      ],
      "name": "transferFrom",
      "outputs": [],
      "stateMutability": "nonpayable",
      "type": "function"
    },
    {
      "inputs": [
        {
          "internalType": "address",
          "name": "newOwner",
          "type": "address"
        }
      ],
      "name": "transferOwnership",
      "outputs": [],
      "stateMutability": "nonpayable",
      "type": "function"
    }
  ],
  "transactionHash": "0x141f60635c753387b2856c69d3a0512f4fe1c45ec8a6b48fc5cb20d79ac9712d",
  "args": [],
  "numDeployments": 1,
  "solcInputHash": "57edf8d2560ec741cf739ba06f34f995",
  "bytecode": "0x60806040523480156200001157600080fd5b50336040518060400160405280600a81526020017f4668756e6465724e4654000000000000000000000000000000000000000000008152506040518060400160405280600481526020017f464e465400000000000000000000000000000000000000000000000000000000815250816000908162000090919062000926565b508060019081620000a2919062000926565b505050600073ffffffffffffffffffffffffffffffffffffffff168173ffffffffffffffffffffffffffffffffffffffff16036200011a5760006040517f1e4fbdf700000000000000000000000000000000000000000000000000000000815260040162000111919062000a52565b60405180910390fd5b6200012b816200017460201b60201c565b506200016660405180606001604052806029815260200162003e61602991396200015a6200023a60201b60201c565b6200026460201b60201c565b600060088190555062000cdb565b6000600760009054906101000a900473ffffffffffffffffffffffffffffffffffffffff16905081600760006101000a81548173ffffffffffffffffffffffffffffffffffffffff021916908373ffffffffffffffffffffffffffffffffffffffff1602179055508173ffffffffffffffffffffffffffffffffffffffff168173ffffffffffffffffffffffffffffffffffffffff167f8be0079c531659141344cd1fd0a4f28419497f9722a3daafe3b4186f6b6457e060405160405180910390a35050565b6000600760009054906101000a900473ffffffffffffffffffffffffffffffffffffffff16905090565b62000286826200027a836200028a60201b60201c565b6200058f60201b60201c565b5050565b606060006040518060400160405280601081526020017f3031323334353637383961626364656600000000000000000000000000000000815250905060008360601b90506000602a67ffffffffffffffff811115620002ee57620002ed620006b7565b5b6040519080825280601f01601f191660200182016040528015620003215781602001600182028036833780820191505090505b5090507f3000000000000000000000000000000000000000000000000000000000000000816000815181106200035c576200035b62000a6f565b5b60200101907effffffffffffffffffffffffffffffffffffffffffffffffffffffffffffff1916908160001a9053507f780000000000000000000000000000000000000000000000000000000000000081600181518110620003c357620003c262000a6f565b5b60200101907effffffffffffffffffffffffffffffffffffffffffffffffffffffffffffff1916908160001a90535060005b6014811015620005835783600484836014811062000418576200041762000a6f565b5b1a60f81b7effffffffffffffffffffffffffffffffffffffffffffffffffffffffffffff1916901c60f81c60ff16815181106200045a576200045962000a6f565b5b602001015160f81c60f81b8260028362000475919062000acd565b600262000483919062000b18565b8151811062000497576200049662000a6f565b5b60200101907effffffffffffffffffffffffffffffffffffffffffffffffffffffffffffff1916908160001a90535083600f60f81b848360148110620004e257620004e162000a6f565b5b1a60f81b1660f81c60ff168151811062000501576200050062000a6f565b5b602001015160f81c60f81b826002836200051c919062000acd565b60036200052a919062000b18565b815181106200053e576200053d62000a6f565b5b60200101907effffffffffffffffffffffffffffffffffffffffffffffffffffffffffffff1916908160001a90535080806200057a9062000b53565b915050620003f5565b50809350505050919050565b60006040518060400160405280600481526020017f70303a2000000000000000000000000000000000000000000000000000000000815250836040518060400160405280600581526020017f2070313a200000000000000000000000000000000000000000000000000000008152508460405160200162000614949392919062000c0e565b604051602081830303815290604052905062000636816200063b60201b60201c565b505050565b608073ffffffffffffffffffffffffffffffffffffffff166341304fac826040518263ffffffff1660e01b815260040162000677919062000cb7565b60006040518083038186803b1580156200069057600080fd5b505afa158015620006a5573d6000803e3d6000fd5b5050505050565b600081519050919050565b7f4e487b7100000000000000000000000000000000000000000000000000000000600052604160045260246000fd5b7f4e487b7100000000000000000000000000000000000000000000000000000000600052602260045260246000fd5b600060028204905060018216806200072e57607f821691505b602082108103620007445762000743620006e6565b5b50919050565b60008190508160005260206000209050919050565b60006020601f8301049050919050565b600082821b905092915050565b600060088302620007ae7fffffffffffffffffffffffffffffffffffffffffffffffffffffffffffffffff826200076f565b620007ba86836200076f565b95508019841693508086168417925050509392505050565b6000819050919050565b6000819050919050565b60006200080762000801620007fb84620007d2565b620007dc565b620007d2565b9050919050565b6000819050919050565b6200082383620007e6565b6200083b62000832826200080e565b8484546200077c565b825550505050565b600090565b6200085262000843565b6200085f81848462000818565b505050565b5b8181101562000887576200087b60008262000848565b60018101905062000865565b5050565b601f821115620008d657620008a0816200074a565b620008ab846200075f565b81016020851015620008bb578190505b620008d3620008ca856200075f565b83018262000864565b50505b505050565b600082821c905092915050565b6000620008fb60001984600802620008db565b1980831691505092915050565b6000620009168383620008e8565b9150826002028217905092915050565b6200093182620006ac565b67ffffffffffffffff8111156200094d576200094c620006b7565b5b62000959825462000715565b620009668282856200088b565b600060209050601f8311600181146200099e576000841562000989578287015190505b62000995858262000908565b86555062000a05565b601f198416620009ae866200074a565b60005b82811015620009d857848901518255600182019150602085019450602081019050620009b1565b86831015620009f85784890151620009f4601f891682620008e8565b8355505b6001600288020188555050505b505050505050565b600073ffffffffffffffffffffffffffffffffffffffff82169050919050565b600062000a3a8262000a0d565b9050919050565b62000a4c8162000a2d565b82525050565b600060208201905062000a69600083018462000a41565b92915050565b7f4e487b7100000000000000000000000000000000000000000000000000000000600052603260045260246000fd5b7f4e487b7100000000000000000000000000000000000000000000000000000000600052601160045260246000fd5b600062000ada82620007d2565b915062000ae783620007d2565b925082820262000af781620007d2565b9150828204841483151762000b115762000b1062000a9e565b5b5092915050565b600062000b2582620007d2565b915062000b3283620007d2565b925082820190508082111562000b4d5762000b4c62000a9e565b5b92915050565b600062000b6082620007d2565b91507fffffffffffffffffffffffffffffffffffffffffffffffffffffffffffffffff820362000b955762000b9462000a9e565b5b600182019050919050565b600081905092915050565b60005b8381101562000bcb57808201518184015260208101905062000bae565b60008484015250505050565b600062000be482620006ac565b62000bf0818562000ba0565b935062000c0281856020860162000bab565b80840191505092915050565b600062000c1c828762000bd7565b915062000c2a828662000bd7565b915062000c38828562000bd7565b915062000c46828462000bd7565b915081905095945050505050565b600082825260208201905092915050565b6000601f19601f8301169050919050565b600062000c8382620006ac565b62000c8f818562000c54565b935062000ca181856020860162000bab565b62000cac8162000c65565b840191505092915050565b6000602082019050818103600083015262000cd3818462000c76565b905092915050565b6131768062000ceb6000396000f3fe608060405234801561001057600080fd5b50600436106101375760003560e01c8063715018a6116100b857806395d89b411161007c57806395d89b4114610363578063a22cb46514610381578063b88d4fde1461039d578063c87b56dd146103b9578063e985e9c5146103e9578063f2fde38b1461041957610137565b8063715018a6146102ce57806384c4bd4b146102d85780638ada066e146102f65780638c210975146103145780638da5cb5b1461034557610137565b80632c17f1b1116100ff5780632c17f1b1146101f257806342842e0e146102225780636352211e1461023e578063655a2b1a1461026e57806370a082311461029e57610137565b806301ffc9a71461013c57806306fdde031461016c578063081812fc1461018a578063095ea7b3146101ba57806323b872dd146101d6575b600080fd5b610156600480360381019061015191906123b3565b610435565b60405161016391906123fb565b60405180910390f35b61017461048b565b60405161018191906124a6565b60405180910390f35b6101a4600480360381019061019f91906124fe565b61051d565b6040516101b1919061256c565b60405180910390f35b6101d460048036038101906101cf91906125b3565b610539565b005b6101f060048036038101906101eb91906125f3565b61054f565b005b61020c600480360381019061020791906124fe565b610651565b6040516102199190612681565b60405180910390f35b61023c600480360381019061023791906125f3565b6106e7565b005b610258600480360381019061025391906124fe565b610707565b604051610265919061256c565b60405180910390f35b610288600480360381019061028391906127fd565b61075d565b604051610295919061288f565b60405180910390f35b6102b860048036038101906102b391906128aa565b61088b565b6040516102c5919061288f565b60405180910390f35b6102d66108e1565b005b6102e06108f5565b6040516102ed919061288f565b60405180910390f35b6102fe6108fb565b60405161030b919061288f565b60405180910390f35b61032e600480360381019061032991906124fe565b610946565b60405161033c9291906128d7565b60405180910390f35b61034d61096a565b60405161035a919061256c565b60405180910390f35b61036b610994565b60405161037891906124a6565b60405180910390f35b61039b6004803603810190610396919061292c565b610a26565b005b6103b760048036038101906103b29190612a0d565b610a3c565b005b6103d360048036038101906103ce91906124fe565b610a59565b6040516103e091906124a6565b60405180910390f35b61040360048036038101906103fe9190612a90565b610ab0565b60405161041091906123fb565b60405180910390f35b610433600480360381019061042e91906128aa565b610b44565b005b60008061044183610bca565b90506104826040518060400160405280601681526020017f436865636b696e67206973537570706f727465643a200000000000000000000081525082610c2b565b80915050919050565b60606000805461049a90612aff565b80601f01602080910402602001604051908101604052809291908181526020018280546104c690612aff565b80156105135780601f106104e857610100808354040283529160200191610513565b820191906000526020600020905b8154815290600101906020018083116104f657829003601f168201915b5050505050905090565b600061052882610c41565b5061053282610cc9565b9050919050565b61054b8282610546610d06565b610d0e565b5050565b600073ffffffffffffffffffffffffffffffffffffffff168273ffffffffffffffffffffffffffffffffffffffff16036105c15760006040517f64a0ae920000000000000000000000000000000000000000000000000000000081526004016105b8919061256c565b60405180910390fd5b60006105d583836105d0610d06565b610d20565b90508373ffffffffffffffffffffffffffffffffffffffff168173ffffffffffffffffffffffffffffffffffffffff161461064b578382826040517f64283d7b00000000000000000000000000000000000000000000000000000000815260040161064293929190612b30565b60405180910390fd5b50505050565b60003373ffffffffffffffffffffffffffffffffffffffff1661067383610707565b73ffffffffffffffffffffffffffffffffffffffff16146106c9576040517f08c379a00000000000000000000000000000000000000000000000000000000081526004016106c090612bb3565b60405180910390fd5b60096000838152602001908152602001600020600001549050919050565b61070283838360405180602001604052806000815250610a3c565b505050565b60008061071383610f3a565b90506107546040518060400160405280600f81526020017f4e4654206f776e6572206973203a20000000000000000000000000000000000081525082610f4c565b80915050919050565b600061079e6040518060400160405280601b81526020017f4d696e74696e67204e465420666f7220726563697069656e743a20000000000081525086610f4c565b60016008546107ad9190612c02565b600881905550600060085490506107c48682610f62565b6107ce8184610f80565b60405180604001604052808681526020018581525060096000838152602001908152602001600020600082015181600001556020820151816001015590505061082f60405180606001604052806026815260200161311b6026913982610fdc565b838673ffffffffffffffffffffffffffffffffffffffff16827f0713ae16a171f65c6877fd4bff12d9157605b607ef798a53c771cbadd0892ff4886040516108779190612681565b60405180910390a480915050949350505050565b60008061089783610ff2565b90506108d86040518060400160405280601181526020017f4e46542062616c616e6365206973203a2000000000000000000000000000000081525082610fdc565b80915050919050565b6108e96110ac565b6108f36000611133565b565b60085481565b600061093e6040518060400160405280600d81526020017f436f756e746572206973203a2000000000000000000000000000000000000000815250600854610fdc565b600854905090565b60096020528060005260406000206000915090508060000154908060010154905082565b6000600760009054906101000a900473ffffffffffffffffffffffffffffffffffffffff16905090565b6060600180546109a390612aff565b80601f01602080910402602001604051908101604052809291908181526020018280546109cf90612aff565b8015610a1c5780601f106109f157610100808354040283529160200191610a1c565b820191906000526020600020905b8154815290600101906020018083116109ff57829003601f168201915b5050505050905090565b610a38610a31610d06565b83836111f9565b5050565b610a4784848461054f565b610a5384848484611368565b50505050565b60606000610a668361151f565b9050610aa76040518060400160405280600a81526020017f746f6b656e5552493a200000000000000000000000000000000000000000000081525082611632565b80915050919050565b6000600560008473ffffffffffffffffffffffffffffffffffffffff1673ffffffffffffffffffffffffffffffffffffffff16815260200190815260200160002060008373ffffffffffffffffffffffffffffffffffffffff1673ffffffffffffffffffffffffffffffffffffffff16815260200190815260200160002060009054906101000a900460ff16905092915050565b610b4c6110ac565b600073ffffffffffffffffffffffffffffffffffffffff168173ffffffffffffffffffffffffffffffffffffffff1603610bbe5760006040517f1e4fbdf7000000000000000000000000000000000000000000000000000000008152600401610bb5919061256c565b60405180910390fd5b610bc781611133565b50565b6000634906490660e01b7bffffffffffffffffffffffffffffffffffffffffffffffffffffffff1916827bffffffffffffffffffffffffffffffffffffffffffffffffffffffff19161480610c245750610c2382611640565b5b9050919050565b610c3d82610c3883611722565b6117a2565b5050565b600080610c4d83611844565b9050600073ffffffffffffffffffffffffffffffffffffffff168173ffffffffffffffffffffffffffffffffffffffff1603610cc057826040517f7e273289000000000000000000000000000000000000000000000000000000008152600401610cb7919061288f565b60405180910390fd5b80915050919050565b60006004600083815260200190815260200160002060009054906101000a900473ffffffffffffffffffffffffffffffffffffffff169050919050565b600033905090565b610d1b8383836001611881565b505050565b600080610d2c84611844565b9050600073ffffffffffffffffffffffffffffffffffffffff168373ffffffffffffffffffffffffffffffffffffffff1614610d6e57610d6d818486611a46565b5b600073ffffffffffffffffffffffffffffffffffffffff168173ffffffffffffffffffffffffffffffffffffffff1614610dff57610db0600085600080611881565b6001600360008373ffffffffffffffffffffffffffffffffffffffff1673ffffffffffffffffffffffffffffffffffffffff168152602001908152602001600020600082825403925050819055505b600073ffffffffffffffffffffffffffffffffffffffff168573ffffffffffffffffffffffffffffffffffffffff1614610e82576001600360008773ffffffffffffffffffffffffffffffffffffffff1673ffffffffffffffffffffffffffffffffffffffff168152602001908152602001600020600082825401925050819055505b846002600086815260200190815260200160002060006101000a81548173ffffffffffffffffffffffffffffffffffffffff021916908373ffffffffffffffffffffffffffffffffffffffff160217905550838573ffffffffffffffffffffffffffffffffffffffff168273ffffffffffffffffffffffffffffffffffffffff167fddf252ad1be2c89b69c2b068fc378daa952ba7f163c4a11628f55a4df523b3ef60405160405180910390a4809150509392505050565b6000610f4582610c41565b9050919050565b610f5e82610f5983611b0a565b6117a2565b5050565b610f7c828260405180602001604052806000815250611de7565b5050565b80600660008481526020019081526020016000209081610fa09190612db6565b507ff8e1a15aba9398e019f0b49df1a4fde98ee17ae345cb5f6b5e2c27f5033e8ce782604051610fd0919061288f565b60405180910390a15050565b610fee82610fe983611e03565b6117a2565b5050565b60008073ffffffffffffffffffffffffffffffffffffffff168273ffffffffffffffffffffffffffffffffffffffff16036110655760006040517f89c62b6400000000000000000000000000000000000000000000000000000000815260040161105c919061256c565b60405180910390fd5b600360008373ffffffffffffffffffffffffffffffffffffffff1673ffffffffffffffffffffffffffffffffffffffff168152602001908152602001600020549050919050565b6110b4610d06565b73ffffffffffffffffffffffffffffffffffffffff166110d261096a565b73ffffffffffffffffffffffffffffffffffffffff1614611131576110f5610d06565b6040517f118cdaa7000000000000000000000000000000000000000000000000000000008152600401611128919061256c565b60405180910390fd5b565b6000600760009054906101000a900473ffffffffffffffffffffffffffffffffffffffff16905081600760006101000a81548173ffffffffffffffffffffffffffffffffffffffff021916908373ffffffffffffffffffffffffffffffffffffffff1602179055508173ffffffffffffffffffffffffffffffffffffffff168173ffffffffffffffffffffffffffffffffffffffff167f8be0079c531659141344cd1fd0a4f28419497f9722a3daafe3b4186f6b6457e060405160405180910390a35050565b600073ffffffffffffffffffffffffffffffffffffffff168273ffffffffffffffffffffffffffffffffffffffff160361126a57816040517f5b08ba18000000000000000000000000000000000000000000000000000000008152600401611261919061256c565b60405180910390fd5b80600560008573ffffffffffffffffffffffffffffffffffffffff1673ffffffffffffffffffffffffffffffffffffffff16815260200190815260200160002060008473ffffffffffffffffffffffffffffffffffffffff1673ffffffffffffffffffffffffffffffffffffffff16815260200190815260200160002060006101000a81548160ff0219169083151502179055508173ffffffffffffffffffffffffffffffffffffffff168373ffffffffffffffffffffffffffffffffffffffff167f17307eab39ab6107e8899845ad3d59bd9653f200f220920489ca2b5937696c318360405161135b91906123fb565b60405180910390a3505050565b60008373ffffffffffffffffffffffffffffffffffffffff163b1115611519578273ffffffffffffffffffffffffffffffffffffffff1663150b7a026113ac610d06565b8685856040518563ffffffff1660e01b81526004016113ce9493929190612edd565b6020604051808303816000875af192505050801561140a57506040513d601f19601f820116820180604052508101906114079190612f3e565b60015b61148e573d806000811461143a576040519150601f19603f3d011682016040523d82523d6000602084013e61143f565b606091505b50600081510361148657836040517f64a0ae9200000000000000000000000000000000000000000000000000000000815260040161147d919061256c565b60405180910390fd5b805181602001fd5b63150b7a0260e01b7bffffffffffffffffffffffffffffffffffffffffffffffffffffffff1916817bffffffffffffffffffffffffffffffffffffffffffffffffffffffff19161461151757836040517f64a0ae9200000000000000000000000000000000000000000000000000000000815260040161150e919061256c565b60405180910390fd5b505b50505050565b606061152a82610c41565b50600060066000848152602001908152602001600020805461154b90612aff565b80601f016020809104026020016040519081016040528092919081815260200182805461157790612aff565b80156115c45780601f10611599576101008083540402835291602001916115c4565b820191906000526020600020905b8154815290600101906020018083116115a757829003601f168201915b5050505050905060006115d5611e15565b905060008151036115ea57819250505061162d565b60008251111561161f578082604051602001611607929190612fa7565b6040516020818303038152906040529250505061162d565b61162884611e2c565b925050505b919050565b61163c82826117a2565b5050565b60007f80ac58cd000000000000000000000000000000000000000000000000000000007bffffffffffffffffffffffffffffffffffffffffffffffffffffffff1916827bffffffffffffffffffffffffffffffffffffffffffffffffffffffff1916148061170b57507f5b5e139f000000000000000000000000000000000000000000000000000000007bffffffffffffffffffffffffffffffffffffffffffffffffffffffff1916827bffffffffffffffffffffffffffffffffffffffffffffffffffffffff1916145b8061171b575061171a82611e95565b5b9050919050565b606081611764576040518060400160405280600581526020017f66616c736500000000000000000000000000000000000000000000000000000081525061179b565b6040518060400160405280600481526020017f74727565000000000000000000000000000000000000000000000000000000008152505b9050919050565b60006040518060400160405280600481526020017f70303a2000000000000000000000000000000000000000000000000000000000815250836040518060400160405280600581526020017f2070313a20000000000000000000000000000000000000000000000000000000815250846040516020016118259493929190612fcb565b604051602081830303815290604052905061183f81611eff565b505050565b60006002600083815260200190815260200160002060009054906101000a900473ffffffffffffffffffffffffffffffffffffffff169050919050565b80806118ba5750600073ffffffffffffffffffffffffffffffffffffffff168273ffffffffffffffffffffffffffffffffffffffff1614155b156119ee5760006118ca84610c41565b9050600073ffffffffffffffffffffffffffffffffffffffff168373ffffffffffffffffffffffffffffffffffffffff161415801561193557508273ffffffffffffffffffffffffffffffffffffffff168173ffffffffffffffffffffffffffffffffffffffff1614155b801561194857506119468184610ab0565b155b1561198a57826040517fa9fbf51f000000000000000000000000000000000000000000000000000000008152600401611981919061256c565b60405180910390fd5b81156119ec57838573ffffffffffffffffffffffffffffffffffffffff168273ffffffffffffffffffffffffffffffffffffffff167f8c5be1e5ebec7d5bd14f71427d1e84f3dd0314c0f7b2291e5b200ac8c7c3b92560405160405180910390a45b505b836004600085815260200190815260200160002060006101000a81548173ffffffffffffffffffffffffffffffffffffffff021916908373ffffffffffffffffffffffffffffffffffffffff16021790555050505050565b611a51838383611f6c565b611b0557600073ffffffffffffffffffffffffffffffffffffffff168373ffffffffffffffffffffffffffffffffffffffff1603611ac657806040517f7e273289000000000000000000000000000000000000000000000000000000008152600401611abd919061288f565b60405180910390fd5b81816040517f177e802f000000000000000000000000000000000000000000000000000000008152600401611afc929190613009565b60405180910390fd5b505050565b606060006040518060400160405280601081526020017f3031323334353637383961626364656600000000000000000000000000000000815250905060008360601b90506000602a67ffffffffffffffff811115611b6b57611b6a6126d2565b5b6040519080825280601f01601f191660200182016040528015611b9d5781602001600182028036833780820191505090505b5090507f300000000000000000000000000000000000000000000000000000000000000081600081518110611bd557611bd4613032565b5b60200101907effffffffffffffffffffffffffffffffffffffffffffffffffffffffffffff1916908160001a9053507f780000000000000000000000000000000000000000000000000000000000000081600181518110611c3957611c38613032565b5b60200101907effffffffffffffffffffffffffffffffffffffffffffffffffffffffffffff1916908160001a90535060005b6014811015611ddb57836004848360148110611c8a57611c89613032565b5b1a60f81b7effffffffffffffffffffffffffffffffffffffffffffffffffffffffffffff1916901c60f81c60ff1681518110611cc957611cc8613032565b5b602001015160f81c60f81b82600283611ce29190613061565b6002611cee9190612c02565b81518110611cff57611cfe613032565b5b60200101907effffffffffffffffffffffffffffffffffffffffffffffffffffffffffffff1916908160001a90535083600f60f81b848360148110611d4757611d46613032565b5b1a60f81b1660f81c60ff1681518110611d6357611d62613032565b5b602001015160f81c60f81b82600283611d7c9190613061565b6003611d889190612c02565b81518110611d9957611d98613032565b5b60200101907effffffffffffffffffffffffffffffffffffffffffffffffffffffffffffff1916908160001a9053508080611dd3906130a3565b915050611c6b565b50809350505050919050565b611df1838361202d565b611dfe6000848484611368565b505050565b6060611e0e82612126565b9050919050565b606060405180602001604052806000815250905090565b6060611e3782610c41565b506000611e42611e15565b90506000815111611e625760405180602001604052806000815250611e8d565b80611e6c84612126565b604051602001611e7d929190612fa7565b6040516020818303038152906040525b915050919050565b60007f01ffc9a7000000000000000000000000000000000000000000000000000000007bffffffffffffffffffffffffffffffffffffffffffffffffffffffff1916827bffffffffffffffffffffffffffffffffffffffffffffffffffffffff1916149050919050565b608073ffffffffffffffffffffffffffffffffffffffff166341304fac826040518263ffffffff1660e01b8152600401611f3991906124a6565b60006040518083038186803b158015611f5157600080fd5b505afa158015611f65573d6000803e3d6000fd5b5050505050565b60008073ffffffffffffffffffffffffffffffffffffffff168373ffffffffffffffffffffffffffffffffffffffff161415801561202457508273ffffffffffffffffffffffffffffffffffffffff168473ffffffffffffffffffffffffffffffffffffffff161480611fe55750611fe48484610ab0565b5b8061202357508273ffffffffffffffffffffffffffffffffffffffff1661200b83610cc9565b73ffffffffffffffffffffffffffffffffffffffff16145b5b90509392505050565b600073ffffffffffffffffffffffffffffffffffffffff168273ffffffffffffffffffffffffffffffffffffffff160361209f5760006040517f64a0ae92000000000000000000000000000000000000000000000000000000008152600401612096919061256c565b60405180910390fd5b60006120ad83836000610d20565b9050600073ffffffffffffffffffffffffffffffffffffffff168173ffffffffffffffffffffffffffffffffffffffff16146121215760006040517f73c6ac6e000000000000000000000000000000000000000000000000000000008152600401612118919061256c565b60405180910390fd5b505050565b606060006001612135846121f4565b01905060008167ffffffffffffffff811115612154576121536126d2565b5b6040519080825280601f01601f1916602001820160405280156121865781602001600182028036833780820191505090505b509050600082602001820190505b6001156121e9578080600190039150507f3031323334353637383961626364656600000000000000000000000000000000600a86061a8153600a85816121dd576121dc6130eb565b5b04945060008503612194575b819350505050919050565b600080600090507a184f03e93ff9f4daa797ed6e38ed64bf6a1f0100000000000000008310612252577a184f03e93ff9f4daa797ed6e38ed64bf6a1f0100000000000000008381612248576122476130eb565b5b0492506040810190505b6d04ee2d6d415b85acef8100000000831061228f576d04ee2d6d415b85acef81000000008381612285576122846130eb565b5b0492506020810190505b662386f26fc1000083106122be57662386f26fc1000083816122b4576122b36130eb565b5b0492506010810190505b6305f5e10083106122e7576305f5e10083816122dd576122dc6130eb565b5b0492506008810190505b612710831061230c576127108381612302576123016130eb565b5b0492506004810190505b6064831061232f5760648381612325576123246130eb565b5b0492506002810190505b600a831061233e576001810190505b80915050919050565b6000604051905090565b600080fd5b600080fd5b60007fffffffff0000000000000000000000000000000000000000000000000000000082169050919050565b6123908161235b565b811461239b57600080fd5b50565b6000813590506123ad81612387565b92915050565b6000602082840312156123c9576123c8612351565b5b60006123d78482850161239e565b91505092915050565b60008115159050919050565b6123f5816123e0565b82525050565b600060208201905061241060008301846123ec565b92915050565b600081519050919050565b600082825260208201905092915050565b60005b83811015612450578082015181840152602081019050612435565b60008484015250505050565b6000601f19601f8301169050919050565b600061247882612416565b6124828185612421565b9350612492818560208601612432565b61249b8161245c565b840191505092915050565b600060208201905081810360008301526124c0818461246d565b905092915050565b6000819050919050565b6124db816124c8565b81146124e657600080fd5b50565b6000813590506124f8816124d2565b92915050565b60006020828403121561251457612513612351565b5b6000612522848285016124e9565b91505092915050565b600073ffffffffffffffffffffffffffffffffffffffff82169050919050565b60006125568261252b565b9050919050565b6125668161254b565b82525050565b6000602082019050612581600083018461255d565b92915050565b6125908161254b565b811461259b57600080fd5b50565b6000813590506125ad81612587565b92915050565b600080604083850312156125ca576125c9612351565b5b60006125d88582860161259e565b92505060206125e9858286016124e9565b9150509250929050565b60008060006060848603121561260c5761260b612351565b5b600061261a8682870161259e565b935050602061262b8682870161259e565b925050604061263c868287016124e9565b9150509250925092565b6000819050919050565b600061266b612666612661846124c8565b612646565b6124c8565b9050919050565b61267b81612650565b82525050565b60006020820190506126966000830184612672565b92915050565b6126a5816124c8565b81146126b057600080fd5b50565b6000813590506126c28161269c565b92915050565b600080fd5b600080fd5b7f4e487b7100000000000000000000000000000000000000000000000000000000600052604160045260246000fd5b61270a8261245c565b810181811067ffffffffffffffff82111715612729576127286126d2565b5b80604052505050565b600061273c612347565b90506127488282612701565b919050565b600067ffffffffffffffff821115612768576127676126d2565b5b6127718261245c565b9050602081019050919050565b82818337600083830152505050565b60006127a061279b8461274d565b612732565b9050828152602081018484840111156127bc576127bb6126cd565b5b6127c784828561277e565b509392505050565b600082601f8301126127e4576127e36126c8565b5b81356127f484826020860161278d565b91505092915050565b6000806000806080858703121561281757612816612351565b5b60006128258782880161259e565b9450506020612836878288016126b3565b9350506040612847878288016124e9565b925050606085013567ffffffffffffffff81111561286857612867612356565b5b612874878288016127cf565b91505092959194509250565b612889816124c8565b82525050565b60006020820190506128a46000830184612880565b92915050565b6000602082840312156128c0576128bf612351565b5b60006128ce8482850161259e565b91505092915050565b60006040820190506128ec6000830185612672565b6128f96020830184612880565b9392505050565b612909816123e0565b811461291457600080fd5b50565b60008135905061292681612900565b92915050565b6000806040838503121561294357612942612351565b5b60006129518582860161259e565b925050602061296285828601612917565b9150509250929050565b600067ffffffffffffffff821115612987576129866126d2565b5b6129908261245c565b9050602081019050919050565b60006129b06129ab8461296c565b612732565b9050828152602081018484840111156129cc576129cb6126cd565b5b6129d784828561277e565b509392505050565b600082601f8301126129f4576129f36126c8565b5b8135612a0484826020860161299d565b91505092915050565b60008060008060808587031215612a2757612a26612351565b5b6000612a358782880161259e565b9450506020612a468782880161259e565b9350506040612a57878288016124e9565b925050606085013567ffffffffffffffff811115612a7857612a77612356565b5b612a84878288016129df565b91505092959194509250565b60008060408385031215612aa757612aa6612351565b5b6000612ab58582860161259e565b9250506020612ac68582860161259e565b9150509250929050565b7f4e487b7100000000000000000000000000000000000000000000000000000000600052602260045260246000fd5b60006002820490506001821680612b1757607f821691505b602082108103612b2a57612b29612ad0565b5b50919050565b6000606082019050612b45600083018661255d565b612b526020830185612880565b612b5f604083018461255d565b949350505050565b7f596f7520646f206e6f74206f776e207468697320746f6b656e00000000000000600082015250565b6000612b9d601983612421565b9150612ba882612b67565b602082019050919050565b60006020820190508181036000830152612bcc81612b90565b9050919050565b7f4e487b7100000000000000000000000000000000000000000000000000000000600052601160045260246000fd5b6000612c0d826124c8565b9150612c18836124c8565b9250828201905080821115612c3057612c2f612bd3565b5b92915050565b60008190508160005260206000209050919050565b60006020601f8301049050919050565b600082821b905092915050565b600060088302612c987fffffffffffffffffffffffffffffffffffffffffffffffffffffffffffffffff82612c5b565b612ca28683612c5b565b95508019841693508086168417925050509392505050565b6000819050919050565b612ccd83612650565b612ce1612cd982612cba565b848454612c68565b825550505050565b600090565b612cf6612ce9565b612d01818484612cc4565b505050565b5b81811015612d2557612d1a600082612cee565b600181019050612d07565b5050565b601f821115612d6a57612d3b81612c36565b612d4484612c4b565b81016020851015612d53578190505b612d67612d5f85612c4b565b830182612d06565b50505b505050565b600082821c905092915050565b6000612d8d60001984600802612d6f565b1980831691505092915050565b6000612da68383612d7c565b9150826002028217905092915050565b612dbf82612416565b67ffffffffffffffff811115612dd857612dd76126d2565b5b612de28254612aff565b612ded828285612d29565b600060209050601f831160018114612e205760008415612e0e578287015190505b612e188582612d9a565b865550612e80565b601f198416612e2e86612c36565b60005b82811015612e5657848901518255600182019150602085019450602081019050612e31565b86831015612e735784890151612e6f601f891682612d7c565b8355505b6001600288020188555050505b505050505050565b600081519050919050565b600082825260208201905092915050565b6000612eaf82612e88565b612eb98185612e93565b9350612ec9818560208601612432565b612ed28161245c565b840191505092915050565b6000608082019050612ef2600083018761255d565b612eff602083018661255d565b612f0c6040830185612880565b8181036060830152612f1e8184612ea4565b905095945050505050565b600081519050612f3881612387565b92915050565b600060208284031215612f5457612f53612351565b5b6000612f6284828501612f29565b91505092915050565b600081905092915050565b6000612f8182612416565b612f8b8185612f6b565b9350612f9b818560208601612432565b80840191505092915050565b6000612fb38285612f76565b9150612fbf8284612f76565b91508190509392505050565b6000612fd78287612f76565b9150612fe38286612f76565b9150612fef8285612f76565b9150612ffb8284612f76565b915081905095945050505050565b600060408201905061301e600083018561255d565b61302b6020830184612880565b9392505050565b7f4e487b7100000000000000000000000000000000000000000000000000000000600052603260045260246000fd5b600061306c826124c8565b9150613077836124c8565b9250828202613085816124c8565b9150828204841483151761309c5761309b612bd3565b5b5092915050565b60006130ae826124c8565b91507fffffffffffffffffffffffffffffffffffffffffffffffffffffffffffffffff82036130e0576130df612bd3565b5b600182019050919050565b7f4e487b7100000000000000000000000000000000000000000000000000000000600052601260045260246000fdfe4e4654206d696e746564207375636365737366756c6c79207769746820746f6b656e49643a20a26469706673582212208c93616d11526cd2cdf185d4ff8bb34c8a9d59db0819be0df74ef23df0e473be64736f6c634300081400334668756e6465724e465420636f6e7472616374206465706c6f7965642e206f776e6572206973203a20",
  "devdoc": {
    "errors": {
      "ERC721IncorrectOwner(address,uint256,address)": [
        {
          "details": "Indicates an error related to the ownership over a particular token. Used in transfers.",
          "params": {
            "owner": "Address of the current owner of a token.",
            "sender": "Address whose tokens are being transferred.",
            "tokenId": "Identifier number of a token."
          }
        }
      ],
      "ERC721InsufficientApproval(address,uint256)": [
        {
          "details": "Indicates a failure with the `operator`s approval. Used in transfers.",
          "params": {
            "operator": "Address that may be allowed to operate on tokens without being their owner.",
            "tokenId": "Identifier number of a token."
          }
        }
      ],
      "ERC721InvalidApprover(address)": [
        {
          "details": "Indicates a failure with the `approver` of a token to be approved. Used in approvals.",
          "params": {
            "approver": "Address initiating an approval operation."
          }
        }
      ],
      "ERC721InvalidOperator(address)": [
        {
          "details": "Indicates a failure with the `operator` to be approved. Used in approvals.",
          "params": {
            "operator": "Address that may be allowed to operate on tokens without being their owner."
          }
        }
      ],
      "ERC721InvalidOwner(address)": [
        {
          "details": "Indicates that an address can't be an owner. For example, `address(0)` is a forbidden owner in EIP-20. Used in balance queries.",
          "params": {
            "owner": "Address of the current owner of a token."
          }
        }
      ],
      "ERC721InvalidReceiver(address)": [
        {
          "details": "Indicates a failure with the token `receiver`. Used in transfers.",
          "params": {
            "receiver": "Address to which tokens are being transferred."
          }
        }
      ],
      "ERC721InvalidSender(address)": [
        {
          "details": "Indicates a failure with the token `sender`. Used in transfers.",
          "params": {
            "sender": "Address whose tokens are being transferred."
          }
        }
      ],
      "ERC721NonexistentToken(uint256)": [
        {
          "details": "Indicates a `tokenId` whose `owner` is the zero address.",
          "params": {
            "tokenId": "Identifier number of a token."
          }
        }
      ],
      "OwnableInvalidOwner(address)": [
        {
          "details": "The owner is not a valid owner account. (eg. `address(0)`)"
        }
      ],
      "OwnableUnauthorizedAccount(address)": [
        {
          "details": "The caller account is not authorized to perform an operation."
        }
      ]
    },
    "events": {
      "Approval(address,address,uint256)": {
        "details": "Emitted when `owner` enables `approved` to manage the `tokenId` token."
      },
      "ApprovalForAll(address,address,bool)": {
        "details": "Emitted when `owner` enables or disables (`approved`) `operator` to manage all of its assets."
      },
      "BatchMetadataUpdate(uint256,uint256)": {
        "details": "This event emits when the metadata of a range of tokens is changed. So that the third-party platforms such as NFT market could timely update the images and related attributes of the NFTs."
      },
      "MetadataUpdate(uint256)": {
        "details": "This event emits when the metadata of a token is changed. So that the third-party platforms such as NFT market could timely update the images and related attributes of the NFT."
      },
      "Transfer(address,address,uint256)": {
        "details": "Emitted when `tokenId` token is transferred from `from` to `to`."
      }
    },
    "kind": "dev",
    "methods": {
      "approve(address,uint256)": {
        "details": "See {IERC721-approve}."
      },
      "getApproved(uint256)": {
        "details": "See {IERC721-getApproved}."
      },
      "isApprovedForAll(address,address)": {
        "details": "See {IERC721-isApprovedForAll}."
      },
      "name()": {
        "details": "See {IERC721Metadata-name}."
      },
      "owner()": {
        "details": "Returns the address of the current owner."
      },
      "renounceOwnership()": {
        "details": "Leaves the contract without owner. It will not be possible to call `onlyOwner` functions. Can only be called by the current owner. NOTE: Renouncing ownership will leave the contract without an owner, thereby disabling any functionality that is only available to the owner."
      },
      "safeTransferFrom(address,address,uint256)": {
        "details": "See {IERC721-safeTransferFrom}."
      },
      "safeTransferFrom(address,address,uint256,bytes)": {
        "details": "See {IERC721-safeTransferFrom}."
      },
      "setApprovalForAll(address,bool)": {
        "details": "See {IERC721-setApprovalForAll}."
      },
      "symbol()": {
        "details": "See {IERC721Metadata-symbol}."
      },
      "transferFrom(address,address,uint256)": {
        "details": "See {IERC721-transferFrom}."
      },
      "transferOwnership(address)": {
        "details": "Transfers ownership of the contract to a new account (`newOwner`). Can only be called by the current owner."
      }
    },
    "version": 1
  },
  "userdoc": {
    "kind": "user",
    "methods": {},
    "version": 1
  },
  "storageLayout": {
    "storage": [
      {
        "astId": 20287,
        "contract": "contracts/FHERC721/FhunderNFT.sol:FhunderNFT",
        "label": "_name",
        "offset": 0,
        "slot": "0",
        "type": "t_string_storage"
      },
      {
        "astId": 20289,
        "contract": "contracts/FHERC721/FhunderNFT.sol:FhunderNFT",
        "label": "_symbol",
        "offset": 0,
        "slot": "1",
        "type": "t_string_storage"
      },
      {
        "astId": 20293,
        "contract": "contracts/FHERC721/FhunderNFT.sol:FhunderNFT",
        "label": "_owners",
        "offset": 0,
        "slot": "2",
        "type": "t_mapping(t_uint256,t_address)"
      },
      {
        "astId": 20297,
        "contract": "contracts/FHERC721/FhunderNFT.sol:FhunderNFT",
        "label": "_balances",
        "offset": 0,
        "slot": "3",
        "type": "t_mapping(t_address,t_uint256)"
      },
      {
        "astId": 20301,
        "contract": "contracts/FHERC721/FhunderNFT.sol:FhunderNFT",
        "label": "_tokenApprovals",
        "offset": 0,
        "slot": "4",
        "type": "t_mapping(t_uint256,t_address)"
      },
      {
        "astId": 20307,
        "contract": "contracts/FHERC721/FhunderNFT.sol:FhunderNFT",
        "label": "_operatorApprovals",
        "offset": 0,
        "slot": "5",
        "type": "t_mapping(t_address,t_mapping(t_address,t_bool))"
      },
      {
        "astId": 21426,
        "contract": "contracts/FHERC721/FhunderNFT.sol:FhunderNFT",
        "label": "_tokenURIs",
        "offset": 0,
        "slot": "6",
        "type": "t_mapping(t_uint256,t_string_storage)"
      },
      {
        "astId": 19302,
        "contract": "contracts/FHERC721/FhunderNFT.sol:FhunderNFT",
        "label": "_owner",
        "offset": 0,
        "slot": "7",
        "type": "t_address"
      },
      {
        "astId": 25943,
        "contract": "contracts/FHERC721/FhunderNFT.sol:FhunderNFT",
        "label": "_tokenIdCounter",
        "offset": 0,
        "slot": "8",
        "type": "t_uint256"
      },
      {
        "astId": 25954,
        "contract": "contracts/FHERC721/FhunderNFT.sol:FhunderNFT",
        "label": "nftData",
        "offset": 0,
        "slot": "9",
        "type": "t_mapping(t_uint256,t_struct(NFTData)25949_storage)"
      }
    ],
    "types": {
      "t_address": {
        "encoding": "inplace",
        "label": "address",
        "numberOfBytes": "20"
      },
      "t_bool": {
        "encoding": "inplace",
        "label": "bool",
        "numberOfBytes": "1"
      },
      "t_mapping(t_address,t_bool)": {
        "encoding": "mapping",
        "key": "t_address",
        "label": "mapping(address => bool)",
        "numberOfBytes": "32",
        "value": "t_bool"
      },
      "t_mapping(t_address,t_mapping(t_address,t_bool))": {
        "encoding": "mapping",
        "key": "t_address",
        "label": "mapping(address => mapping(address => bool))",
        "numberOfBytes": "32",
        "value": "t_mapping(t_address,t_bool)"
      },
      "t_mapping(t_address,t_uint256)": {
        "encoding": "mapping",
        "key": "t_address",
        "label": "mapping(address => uint256)",
        "numberOfBytes": "32",
        "value": "t_uint256"
      },
      "t_mapping(t_uint256,t_address)": {
        "encoding": "mapping",
        "key": "t_uint256",
        "label": "mapping(uint256 => address)",
        "numberOfBytes": "32",
        "value": "t_address"
      },
      "t_mapping(t_uint256,t_string_storage)": {
        "encoding": "mapping",
        "key": "t_uint256",
        "label": "mapping(uint256 => string)",
        "numberOfBytes": "32",
        "value": "t_string_storage"
      },
      "t_mapping(t_uint256,t_struct(NFTData)25949_storage)": {
        "encoding": "mapping",
        "key": "t_uint256",
        "label": "mapping(uint256 => struct FhunderNFT.NFTData)",
        "numberOfBytes": "32",
        "value": "t_struct(NFTData)25949_storage"
      },
      "t_string_storage": {
        "encoding": "bytes",
        "label": "string",
        "numberOfBytes": "32"
      },
      "t_struct(NFTData)25949_storage": {
        "encoding": "inplace",
        "label": "struct FhunderNFT.NFTData",
        "members": [
          {
            "astId": 25946,
            "contract": "contracts/FHERC721/FhunderNFT.sol:FhunderNFT",
            "label": "encryptedAmount",
            "offset": 0,
            "slot": "0",
            "type": "t_userDefinedValueType(euint128)16"
          },
          {
            "astId": 25948,
            "contract": "contracts/FHERC721/FhunderNFT.sol:FhunderNFT",
            "label": "campaignId",
            "offset": 0,
            "slot": "1",
            "type": "t_uint256"
          }
        ],
        "numberOfBytes": "64"
      },
      "t_uint256": {
        "encoding": "inplace",
        "label": "uint256",
        "numberOfBytes": "32"
      },
      "t_userDefinedValueType(euint128)16": {
        "encoding": "inplace",
        "label": "euint128",
        "numberOfBytes": "32"
      }
    }
  }
}